:020000041000EA
:10000000002008205D0100101301001015010010F0
:100010001101001011010010110100101101001058
:100020001101001011010010110100101701001042
:100030001101001011010010190100101B01001026
:100040001D0100101D0100101D0100101D010010F8
:100050001D0100101D0100101D0100101D010010E8
:100060001D0100101D0100101D0100101D010010D8
:100070001D0100101D0100101D0100101D010010C8
:100080001D0100101D0100101D0100101D010010B8
:100090001D0100101D0100101D0100101D010010A8
:1000A0001D0100101D0100101D0100101D01001098
:1000B0001D0100101D0100101D0100101D01001088
:1000C0001D0100101D0100101D0100101D01001078
:1000D0001D0100101D0100101D0100101D01001068
:1000E0001D0100101D0100101D0100101D01001058
:1000F0001D0100101D0100101D0100101D01001048
:100100001D0100101D0100101D0100101D01001037
:1001100000BE00BE00BE00BE00BE00BEEFF3058004
:10012000103800BEF2EB88713849001058490010B1
:10013000A801001090A31AE7D3DEFFFF42012110AF
:10014000FF0100004C580000793512AB4FF0000061
:100150002049086006C881F3088810474FF05040D6
:10016000006810B14FF00000F2E70FA40ECC002998
:1001700002D000F015F8F9E71749184A002000E00E
:1001800001C19142FCD1002080F30A8814498847BC
:10019000144988471449884700BEFDE701C901C2D8
:1001A0009A42FBD3704700BF58490010100100204D
:1001B0003C11002084590010000008200000082095
:1001C00084590010001008200010082000000000D2
:1001D0007047000008ED00E03C110020882200205C
:1001E00071250010C904001069250010F8B500BF82
:1001F0000348044B834202D0034B03B118477047B6
:100200003C1100203C11002000000000064B074973
:10021000C91A891048BF0131491003D0044B0BB1F2
:1002200001481847704700BF3C1100203C110020D6
:100230000000000010B5064C237843B9FFF7D8FF43
:10024000044B13B10448AFF300800123237010BDA9
:10025000C8130020000000005046001008B5044BF1
:100260001BB104490448AFF30080BDE80840CDE766
:1002700000000000CC13002050460010FFEE007A72
:10028000B4EEE70AF1EE10FA32D4F7EE007AB4EEEB
:10029000E70AF1EE10FA32DDA9B140F2E7331B04B0
:1002A00000EB8000800000F180400C3000F5282138
:1002B0000A6800F5292092B202600A6853401B0CBC
:1002C0001B040360704740F2E73200EB80008000BF
:1002D00000F180400C3000F528210B6800F5292042
:1002E00053409BB203600B681B0C1B0403607047F8
:1002F00009B91A4BD4E740F2E7331A46E5E7F0EEC6
:10030000C07A9FED177A09B1B1EE400A67EE877A9D
:10031000FCEEE77A17EE903ADFED127AB4EEE70AD8
:10032000F1EE10FA9BB2E8DCDFED0F7AB4EEE70AEB
:10033000F1EE10FAB3D400EB8000800000F18040B1
:100340000C3000F52822136800F529209BB20360C9
:1003500013681B0C1B040360704700BF0000E70319
:1003600000C079446F12833A6F1283BA10B51F210F
:10037000044600F04DFE00222046114600F066FEC5
:100380002046BDE81040002100F07ABE70B555252A
:100390001A4CE5711D4621721146194B20712360DC
:1003A0002B1D9BB21A0AA271637101B1CDB90B204A
:1003B0004FF00A0E092600231049124D04EB060CDB
:1003C00011F8012B82EA132235F81220614582EAE6
:1003D00003231AB29BB2F3D11B0AA25504F80E30C4
:1003E00070BD2A4604F1090003F0EEFF05F109068D
:1003F00005F10A0E05F10B00DDE700BF48210020E2
:10040000FFFFFD00BC190020102810B419D94FF6C9
:10041000FF71214B214A1C68214B002C18BF11464B
:100420001B685DF8044B03EB83039B0003F18043DF
:100430000C3303F52820026803F529230A401A60CB
:100440007047184B33F81020002AE0D0164B4FF6B7
:10045000FF70B3FBF2F3013B834228BF0346104A0F
:10046000124912680C4C02EB8202920002F1804C9D
:1004700011440CF5282C2268CCF8103001335B08AD
:100480000AB106481B040A6801F580515340034035
:100490005DF8044B0B607047382100200000FFFF1F
:1004A0003C210020BC460010C0E1E4000C800A4062
:1004B000704700BF08B50B68B3F5966F00D008BD54
:1004C0000021084601F0D2FD2DE9F04F00222DED6C
:1004D000088B48F205011346BA48E5B004E012F073
:1004E000800F0CBF00230B4694B283EA44255B00C7
:1004F0009BB22F0448BF0B4383EA84255B009BB269
:100500002E0448BF4B4083EAC4255B009BB22D04F8
:1005100048BF4B4083EA04355B009BB22F0448BFC1
:100520004B4083EA44355B009BB22E0448BF4B40EE
:1005300083EA84355B009BB22D0448BF4B4083EABD
:10054000C4345B009BB2240402F1010248BF4B405B
:10055000B2F5807F20F8023FC1D19B4C002120469C
:1005600003F0A8FF57224CF601034FF07E510427F9
:100570004FF0010A6270E3804FF4B97241F2C9632F
:10058000216692496285E3852165082039462772F4
:1005900084F895A000F03CFD3946092000F038FDB4
:1005A00039460A2000F034FD39460B2000F030FDBA
:1005B000874BF0211F6040F2E7390523854D864ABD
:1005C000864E13606965C5F86090EB6D844A9BB2F6
:1005D000F365EB6D14201340F3652B6D4FF00008AD
:1005E000DB4303EA0A033365A966C5F874902B6FF1
:1005F0009BB233672B6F1A4032676B6EDB4303EAA3
:100600000A03736600F04CFD142048EC4400424697
:10061000514600F01BFD152000F042FD152048EC6E
:1006200044004246514600F011FD1620394600F0C4
:10063000EFFC0321A0236B4A11606B4AC2F80080D3
:100640002B64C5F84C90AB6C9BB2B364EB6B674DFD
:10065000DB4303EA0A03F36302F0C6F81D20FFF749
:1006600085FE1C20FFF782FE15F8040C0435FFF709
:10067000CBFE35F8060C01F01BFB35F8026C002EA2
:10068000F2D13046FFF7C0FE03F07CFE0123304676
:1006900018A9ADF8603002F0ADFA01F0A3FB544B9D
:1006A00000900493019101F09DFB9FED52AADFEDB4
:1006B000529A9FED529ADFED528A9FED528ACDE910
:1006C0000201DFF85CB1504E00214FF0FF3002F024
:1006D00017FB01F087FBDBF8003005460F4613B32C
:1006E000D6E900128D4277EB02021CD3474AD2F8BA
:1006F000008003EB8809B9F802A0BAF1000F00F0FE
:10070000638213F82800FFF77FFE404908F10103D8
:100710000B6028464FF47A733946B9F80220E3FBA0
:100720000201C6E9000144F62063009AA81A019A62
:1007300067EB0201984271F1000380F083814CF273
:100740005032029BE91A039B67EB0303914273F15A
:10075000000380F0A380002003F0BCF80028B3D091
:100760004022002008A903F0C1F80028ACD000F115
:100770002003DFF8A480DFF8ACA00DEB030508AF81
:10078000234B17F8012B1B78072B18D8DFE803F051
:1007900080797069675B4C041E490B68B3F5967FDE
:1007A00003D21D48C25401330B601C490A6802F190
:1007B000FF39C1F80090B9F1000F00F05782BD4237
:1007C00082D0DDE7BA190020C8120020C3F51C4111
:1007D0004021002000800A404421002000900A406F
:1007E0000000FFFF3C21002038210020AC46001013
:1007F000482100200024744900000000022B073D1E
:1008000082F922440000C842C0120020D41F0020F8
:100810008422002008210020DC1F00200C21002061
:10082000D01F0020FFFFFD000723CC49CC480B70F0
:10083000CC490B68C25401330B60CB490B6843EAC7
:1008400002230B60BBE7C84B1A600623C349C448A8
:100850000B70C4490B68C25401330B60AFE705232A
:10086000F4E752B9BF4B1A600423BC4A1370A6E7E1
:10087000FD2A00F0F781FF2AA1D00023B74A1370A8
:100880009DE7FF2A0CBF02230023B44A137096E7AA
:10089000FF2A94D10123B14A137090E74FF47A7282
:1008A00000232846394603F09BFE4FF050434FF09B
:1008B000040C4FEA154884F810804FEA1568E5816A
:1008C00084F81180D3F804805B6888F4801883F47E
:1008D0000013C3F34053A54AC8F3005884F81A80A4
:1008E000E3761368DFF8DCE2A14983F4005303F4F4
:1008F0007043CEF80030C1F800C0030C6081000ED8
:10090000237360731368D905FCD553689FED994A2A
:100910009BB207EE903AF8EE677A9FED975A67EE32
:10092000847A964BDFED964A93ED007A67EE857AEE
:10093000DFED945A77EEA77A27EE247AF0EE086A74
:10094000A7EEA57A9FED906A77EE666AC6EE867A84
:1009500067EE887AF5EEC07AF1EE10FA83ED007A50
:1009600000F15781F4EEC87AF1EE10FA40F36C8191
:10097000002227204FF0100C114667EE087ADFEDB9
:10098000836A0023FDEEE77AB4EEE67A6CF30703A0
:1009900060F30F2361F3174362F31F63C4F82E3033
:1009A00017EE903AF1EE10FA4FEA134263854FEAE0
:1009B000136384F82C2084F82D3004D5744B1B78F5
:1009C000002B00F02B81DFED737AB4EEE77AF1EEC5
:1009D00010FAA2BF00236E4A13706F4B1B7894F875
:1009E0003280984513D008F1FF33042B00F22681A2
:1009F00000236A4A13606A4B53F82830CBF8003062
:100A000001F0F0F9644BC6E9000183F8008094F826
:100A10003B30CDE90257012B7FF49DAE0023614AA4
:100A2000C4E90F33C4E911332265E3644FF07E5209
:100A300084F83B300023C4E9182300220023C4E9D2
:100A40001A2388E601F0EEFC07EE900A94F89580F0
:100A500087EE8ABAB8F1000F00F0C180D4F8963062
:100A6000DFED515A07EE103AD4F8AA30B8EEC77A43
:100A700007EE903AC7EE08AAF8EEE77AF0EE6A6A57
:100A800087EE887A9FED496AE7EE656AE7EE25AA68
:100A9000474B0021186886EE860AFFF7EFFB454BAF
:100AA000012118688AEE860AFFF7E8FB9FED427A7B
:100AB00066EE877A2AEE877AFDEEE77A17EE902ABD
:100AC000FDEEC77A17EE901A5FFA82F8C2F307209C
:100AD000C2F3074C5FFA81FEC1F30729C1F3074A4D
:100AE000120E090E6BEE266A0023C6EE897A68F3B1
:100AF000070360F30F236CF3174362F31F63C4F81B
:100B00008030002367EEA87A6BEE2AAA6EF3070303
:100B100069F30F236AF3174361F31F6317EE900A1B
:100B2000C4F8843001F0BCFCCAEE897A67EEA87A7A
:100B3000224BCDE900571B6800EB030817EE900A23
:100B400001F0AEFC1D4B1E4AC3F800801368C4F8C8
:100B5000888018441060C4F88C00F0E584220020DE
:100B6000DC1F0020082100200C21002000000A408A
:100B700000200A403333534000008039A410002085
:100B80003333733FCDCC4C3D9899993F9A99594056
:100B90008522002067666640A0100020D41F002038
:100BA00050460010C3F51C410AD7A33DAE47613E35
:100BB00040210020442100205AF49D44302100208F
:100BC0003421002000100A405046FFF71DFCB04BB6
:100BD000CBF800A084F832A083F800A0A3E5AD4BC9
:100BE000B0EE690A18684146FFF748FBAA4B414638
:100BF0001868B0EE690AFFF741FBF0EE69AAF0EE63
:100C0000696A4146C246C146C6464246C446404657
:100C100068E70022114610469446AEE69F4A1360EC
:100C20009F4BCBF8003001F0DDF801220223C6E92A
:100C300000019C490A70964A1370D0E60020CBF858
:100C40000000FFF7E1FBE2E667EE887AFDEEE77A67
:100C500017EE902A5FFA82FCC2F30720C2F3074125
:100C6000120E8AE60323904A1370A8E58E4A032BDE
:100C700082F800902FD98D4A1278C82A059201D0A7
:100C8000FE2A28D19A1E414619A8CDE90623CDF89F
:100C900060A003F099FB079B9A1C069A63D0002181
:100CA0000DF1620C18A89C44069310F801EB804BE0
:100CB0008EEA112E33F81EE084458EEA012189B2B6
:100CC000F3D1069B7948825C184410F8010C42EA83
:100CD0000022914203D00023764A13606FE57348E7
:100CE000DBB2C1789A1F0139D2B20729F3D801A02B
:100CF00050F821F0150D0010D70D00106B0D0010ED
:100D0000D70C0010D70C0010D70C0010D70C001017
:100D1000570F00100499059A00230A7107224A719F
:100D20004FF4AA42CA802278C1F800A04A726278C1
:100D30000B728A72A279CA725F4A1146049211F844
:100D4000012B5B4882EA132230F8122009F10109D5
:100D500082EA0323B9F10C0F1AB29BB2EFD1049BC4
:100D60009A810E224AE00021ACE7012A40F2CE80AF
:100D70004E4A083B9088DAB250FA83F3B3F5807F8D
:100D800040F29C80059BFE2BA5D00423049A059974
:100D900053714FF4AA43D38002231372464B11714F
:100DA000049319460023C2F800A011F8012B404813
:100DB00082EA132230F8122009F1010982EA0323A2
:100DC000B9F1090F1AB29BB2EFD104991B0A4A720A
:100DD0008B720B2212E0059BFE2B3FF47CAF032AA3
:100DE00035D9324AD38892889918B1F5807F0DD8C9
:100DF000224400210598FFF7C9FA02462E49002037
:100E000002F006FE002002F0B9FD64E70423049A14
:100E1000059953714FF4AA43D38002231372264BD2
:100E20001171049319460023C2F800A011F8012B98
:100E30001F4882EA132230F8122009F1010982EAE0
:100E40000323B9F1090F1AB29BB2EFD1BDE7042316
:100E5000049A059953714FF4AA43D3800223137265
:100E6000154B1171049319460023C2F800A011F824
:100E7000012B0F4882EA132230F8122009F10109F0
:100E800082EA0323B9F1090F1AB29BB2EFD19CE7B2
:100E9000A01000204021002044210020D41F002069
:100EA000904600108522002084220020DC1F0020B4
:100EB000BC1900200821002048210020334920448B
:100EC00003F082FA059BFE2B3FF405AF0499059AC7
:100ED00000230A7104224A714FF4AA42CA802C4AA4
:100EE000C1F800A00B721146049211F8012B294899
:100EF00082EA132230F8122009F1010982EA032361
:100F0000B9F1090F1AB29BB2EFD15EE7059BFE2B38
:100F10003FF4E1AE0423049A059953714FF4AA43B8
:100F2000D380022313721A4B1171049319460023C4
:100F3000C2F800A011F8012B164882EA132230F8FB
:100F4000122009F1010982EA0323B9F1090F1AB24B
:100F50009BB2EFD139E7059BFE2B3FF4BCAE0023DB
:100F6000059819461A46FFF711FA0949024600206A
:100F700002F04EFD002002F001FD322000F098FE4C
:100F80000121084600F0FEFFFEE700BFE21F00203F
:100F900048210020BC190020004870477C47001001
:100FA000004870473047001010B510B3042826D809
:100FB000144B53F82040D4B1204603F0CDFA1F283B
:100FC000844628BF4FF01F0C0CF101030E495B0053
:100FD00043F440730B80621E40B11346023312F893
:100FE000010F1B1B9C4521F8020FF6D8064C20462A
:100FF00010BD054B054A1C461A60204610BD002452
:10100000204610BD90470010081800200403090472
:1010100010B44FF480740C4B53F8202003EB800382
:10102000C00082F0400200F1804003F5805C02F0D5
:10103000C00200F5203003F54053CCF80020416099
:101040001C605DF8044B704704800340002915BF05
:101050000C2104214FF0080C4FF0000C002A08BFAF
:101060006146064B53F8202003EB80034A4003F50A
:10107000805302F00C021A60704700BF04800340E6
:10108000402221B1044B800003441A607047034B97
:10109000800003441A60704704A0034004B003407A
:1010A00030B4002343EC440043EC400005254FF4EA
:1010B00080740B4BC20053F8201003EB800081F0CA
:1010C000400102F1804303F5203301F0C00200F536
:1010D000805100F540500A605D60046030BC70478C
:1010E000048003400FB400B583B0049C074801F0AE
:1010F0005DFB3CB105A92046019101F01BFA0448B3
:1011000001F054FB012001F02DFA00BFA4470010AC
:10111000B447001070B5EFF3108572B6134CD4E8E5
:10112000CFCF0126BCF1000FF9D1C4E84C6FBCF160
:10113000000FF4D1BFF35F8F4FF0010C4FEAD10ED7
:1011400001F007030CFA03F310F80EC01CEA0306C3
:1011500008D14CEA030300F80E30C4E88F6F85F322
:10116000108870BD1046FFF7BDFF00BF5318002068
:10117000F8B5EFF3108572B6234CD4E8CF7F012683
:10118000002FFAD1C4E8476F002FF6D1BFF35F8F6D
:101190009A4227D80126D70810F807E002F0070C7A
:1011A00006FA0CFC1EEA0C0F00EBD2070DD125E06D
:1011B0004FEAD20E10F80EE002F0070C06FA0CFC13
:1011C0001EEA0C0F00EBD20718D001329342EFD287
:1011D0004FF0FF300023C4E88F3F85F3108898421A
:1011E00007DBF8BD0023C4E88F3F85F310884FF07C
:1011F000FF300029F5D00698FFF774FF4EEA0C0C7B
:10120000104687F800C0E5E753180020044A10781C
:10121000431CDBB2172B88BF10231370704700BF2D
:10122000A810002010B5054C82B001461F231822DB
:1012300000940348FFF79CFF02B010BDB8470010B0
:101240008C1900204FF0E022936843F00053936024
:10125000704700BF0021044B03F12002C3E88F1F39
:1012600001339342FAD17047481800204FF0E02331
:101270004FF08032C3F80024C3F80424C3F80824D4
:10128000C3F80C24C3F81024C3F81424C3F818249A
:10129000C3F81C24C3F82024C3F82424C3F828244A
:1012A000C3F82C24C3F83024704700BF012300F09A
:1012B0001F029340400941B1800000F1604000F5F9
:1012C0006140C0F8803103607047024A203042F824
:1012D0002030704700E100E0F8B50D46EFF31087CD
:1012E00072B6124ED6E8CF2F0123002AFAD1C6E8F3
:1012F000423F002AF6D1BFF35F8F0D4B00F110047F
:101300009B680C4A53F82430934203D0994201D091
:1013100000F0ECFE064B9B6843F82450BFF35F8F50
:101320000023C6E88F3F87F31088F8BD51180020CE
:1013300000ED00E01D0100102DE9F04F80468B46C6
:10134000174683B0EFF3108372B6DFF8D0A1009395
:10135000DAE8CF1F01230029FAD1CAE8413F00296A
:10136000F6D1BFF35F8F664E96F90050002DC0F2A4
:10137000A080644C05EB450304EB8300817908F100
:101380001008317060499B008968994651F828E03F
:101390000646AEEB04012F294FEA450231D95B4BDB
:1013A0009E4540F0A2805A4B09F10209A144043B3A
:1013B000A3EB0903C3F34A036FEAC3434FF421418C
:1013C0006FEAD343154424F8251004EB85056B80A0
:1013D0004BF60153AB80FF2346F0010EEF71C5F8C9
:1013E00008B0AB71484B9B6843F828E0BFF35F8FB0
:1013F0000023CAE88F3F009B83F3108803B0BDE849
:10140000F08F2EF0010191F807C0BC452BD84FF4A6
:101410002146E6523E4B09F102062644043B09F1FF
:1014200004099B1BA1440E1FC771A6EB0906394F87
:10143000C6F34A063E438680C3F34A03364E3B4317
:1014400043804AF6AA250B461B1B5B415D432D0DCD
:10145000C0F808B0857140F0010E0E60C2E7C07997
:10146000B8422BD9614691F9063003EB430004EBF7
:101470008000002B8446F2DA4BF6015001930B1DDD
:10148000043EF61AC6F34A066FEAC6466FEAD64627
:1014900002EB050CDFF88090019B8D7104EB8C054D
:1014A0008E8044F82C90A880AB71EF71C5F808B01D
:1014B00098E700F01BFE96F900505AE788880193E0
:1014C000400501F1040315D44FEA605C6FF007009A
:1014D0000CF1020CA0EB090003EB4C0C001B604468
:1014E000C0F34A0040F46040CAE7019200F0FEFDFC
:1014F000019A58E700F5FF1000F5FF501F30E3E7B1
:1015000083220020AC10002000ED00E01D0100103F
:10151000DC10002000E0FFFF014880475118002048
:10152000F0B5EFF30585EDB2EFF3108C72B62649F6
:10153000D1E8CF2F0123002AFAD1C1E8423F002A87
:10154000F6D1BFF35F8F214E40F0010EB4684AF62A
:10155000AA2354F825701E4A0446A41A6441634322
:101560001B0D77455BB21BD092F906409C421CD004
:1015700092F912409C4223D092F91E409C4221D005
:1015800092F92A409C4208BF03240FD0114A00243C
:10159000157813708571C1E88F4F8CF31088F0BDFA
:1015A000B2680D4C42F82540F0E7002404EB4404F7
:1015B00002EB8402FF2494714BF601549480E5E71A
:1015C0000124F3E70224F1E75118002000ED00E0C8
:1015D000AC100020832200201D010010014B194493
:1015E0000160704748180020F8B5124D124EB54200
:1015F0001FD22C462368FF277BB1FFF707FE014669
:101600002846FFF7EBFFA780BFF35F8F0834B44293
:101610000FD223682546002BEFD1FFF7F7FD0146D7
:101620002846FFF7DBFF2771BFF35F8F0834B44212
:10163000EFD3F8BD2C1100203C11002010B504465A
:10164000FFF7E4FD01462046FFF7C8FFFF232371A3
:10165000BFF35F8F10BD00BF10B504460120FFF738
:10166000E1FD034B18442060BFF35F8F10BD00BF46
:10167000481800200D4B1A68EFF3108172B6D2E8BB
:10168000CFCF0120BCF1000FF9D1C2E84C0FBCF163
:10169000000FF4D1BFF35F8F00221B68C3E88F2FC8
:1016A00081F3108840BF0020002170477C22002079
:1016B0002DE9F04F2DED028B85B0EFF30583DBB202
:1016C000103B9A0818BF01224FF0010103F00300FC
:1016D000AD4B00EB82020CBFAC4FAD4F53F8226014
:1016E00001FA00F207F541539FEDA58BB04601903A
:1016F00000925A6035E0B8F804301B0440F1928043
:1017000098F80630002B40F0DF80B8F90820002A56
:10171000C0F22581D8F8143002EB420203EBC2027A
:10172000D2E90245B5F1FF3F08BFB4F1FF3F0DD04C
:10173000019B07EB8301BB6A0A69D21AE31A934241
:1017400003D33B6A009A134200D10C61384600F083
:1017500041FB201A65EB0105012875F1000380F2B9
:10176000FE80B8F90840009B002CFB63C3DBD8F86F
:1017700014A004EB440B38460AEBCB05D5E90296DE
:1017800000F028FB484561EB06010029B3DB002E81
:10179000C0F2C3802B697F4A934200F0FD806A88C3
:1017A000B8F9080092B242EA0040696998470246D7
:1017B0000B4652EA030100F0B080002B80F2D58086
:1017C000B9EB020066EB0303C5E902033AF93B50AB
:1017D000002D90DBD8F814C005EB45010CEBC101DE
:1017E0008A68821ACA6863EB0202002A83DBA8F8BF
:1017F000085007E09568451BD56863EB0505002D8B
:1018000008DB1146B1F9006006EB4602002E0CEB36
:10181000C202EFDA2AF83B600C80B8F804301B04EF
:101820003FF56EAFD8F81030EFF3108272B6D3E800
:10183000CF0F01210028FAD1C3E8401F0028F6D1BC
:10184000BFF35F8F4FF6FF70B8F804900023D8F80D
:1018500010100FFA89F9A8F80400C1E88F3F82F34D
:1018600010889945FFF64CAFBA46D8F8145008F1E5
:10187000080B09EB490E05EBCE03D3E90267B8F973
:101880000830DC46002B05DA0FE035F934308446A9
:10189000002B0ADB03EB430405EBC400D0E9021282
:1018A000711A67EB0202002AEFDAACF8009035F902
:1018B0003E9025F83E30B9F1000FDADA98F806309C
:1018C0005746002B3FF421AF002388F80630B8F9C3
:1018D000083008F1080C5E1C41D01A46D8F81440B4
:1018E00003E08446591C3FF412AF03EB430104EBC1
:1018F000C10045881E462D0434F93130F1D5964299
:1019000080ED028BEED0ACF80030B8F8082024F857
:1019100031203246A8F80860E4E73AF83B30A8F8EE
:101920000830D8F81030EFF3108272B6D3E8CF0F3A
:1019300001210028FAD1C3E8401F0028F6D1BFF3E7
:101940005F8FB8F80230D8F810102AF83B30002327
:10195000A8F80240C1E88F3F82F31088CBE640BF71
:1019600005B0BDEC028BBDE8F08F3846CDE902230F
:1019700000F030FA029A039B801843EB010323E73F
:10198000FFFFFFFFFFFFFFFF1021002000000B40C3
:1019900000800B40B11600106B6918461A6902935B
:1019A00090470028B9D0029BD3E9002301E700BF8C
:1019B0002DE9F84F364C25692DB1BDE8F84F0A21C5
:1019C0003448FFF70BBEDFF8E480032603214046CE
:1019D00000F0EEF9C4F80C80FFF718FC4FF0504C03
:1019E0002D4B26701844DCF800300F2163706369BA
:1019F00061801D834FF00405A3F878504FF0050572
:101A0000A3F890504FF00605A3F8A8504FF0070533
:101A10000E21206108274FF6FF724FF00A0EA3F83F
:101A2000C0504FF001094FF00C0C4FF0020B4FF07B
:101A3000090A0D204FF00B05A3F868111749A28081
:101A4000A3F808E1A160A3F848B0A3F8F0A0A3F8B8
:101A50002051A3F838C1A3F85001A3F83090A3F89F
:101A60006060A3F8D8701A800D4B3046C8F820701B
:101A70000C49DC60FFF730FC49463046FFF716FCA6
:101A8000094B0A211F600348BDE8F84FFFF7A6BDC8
:101A9000F41000207C22002048180020FFFF1000D6
:101AA00010210020B116001040200B4000000B4018
:101AB0000146F0B50069EFF3108772B6D0E8CF5F4A
:101AC0000124002DFAD1C0E8454F002DF6D1BFF317
:101AD0005F8FB1F902E04C690EEB4E0C4FEACC0679
:101AE000BEF1000FA8BFA05B4FF00005A8BF488063
:101AF00004EBCC0C0869C0E88F5F87F31088AE4513
:101B000035DBBCF80200CCE902230130C0F30E0043
:101B1000012838BF0120059BACF80200CCF810303A
:101B2000069B40EA0E40CCF814300B69EFF31082AC
:101B300072B6D3E8CFCF0127BCF1000FF9D1C3E8CB
:101B40004C7FBCF1000FF4D1BFF35F8F8B88A353A0
:101B5000A1F804E00B69C3E88F5F82F310880122CB
:101B6000CB68097803F501538A405A60F0BD4FF005
:101B7000FF30F0BD4289B2EB214F38DD42690B14D2
:101B800003EB430310B502EBC3030469EFF3108CBE
:101B900072B6D4E8CFEF0122BEF1000FF9D1C4E84C
:101BA0004E2FBEF1000FF4D1BFF35F8F5A8889B278
:101BB00092B28A4207D000230269C2E88F3F8CF3B9
:101BC0001088184610BD42F400425A8001230022BA
:101BD00001698371C1E88F2F8CF31088C268017886
:101BE00002F5015203FA01F11846516010BD0020C0
:101BF000704700BF2DE9F041861F41F1FF35B0422B
:101C000071EB050338BF002682B038BF3546044665
:101C10000F4600F0E7F8301A65EB0101012871F179
:101C2000000306DA2046394602B0BDE8F04100F074
:101C3000E3B800F0D7F8864265EB010100290ADB22
:101C40000021174B3246009316482B460191FFF7AF
:101C50002FFF0028E6DB4FF0000C1348134A436ABD
:101C60009D4204D8816AB142DCD29D42DAD1136828
:101C7000EFF3108172B6D3E8CF8F5FF0010EB8F1A9
:101C8000000FF8D1C3E848EFB8F1000FF3D1BFF36C
:101C90005F8F1368C3E88FCF81F3108820BFDEE722
:101CA00075160010F410002000000B407C2200206C
:101CB00010B5044600F096F84FF47A73E4FB030184
:101CC000BDE810400029BCBF4FF0FF306FF000416D
:101CD000FFF790BF2DE9F04307460E4683B0EFF3C0
:101CE0000584E4B274B12F4B586A884203D20020B5
:101CF00003B0BDE8F0839B6ABB4248D3012003B028
:101D0000BDE8F083284DD5F80C9095F80080484642
:101D100000F060F808F1040859F828301B1A381A46
:101D200066EB0101984271F100030DDB20BF1D4BF2
:101D3000586A8642DBD89B6ABB42DFD2301A18BF92
:101D4000012003B0BDE8F08300F04CF8874266EB59
:101D50000101002913DB154B2846CDE900343A4632
:101D60003346FFF7A5FE011E09DD0E4B5A6A964267
:101D700015D89B6ABB4210D30B48FFF7FBFE094BFB
:101D8000586A8642B3D89B6ABB42B7D2D6E7401A9C
:101D900018BF012003B0BDE8F0839642ECD120BF0C
:101DA000EAE700BF00000B40F41000207516001099
:101DB00010B4054B054C064AA04214BF1846581CE7
:101DC0005DF8044BFFF7A6B99019002000800B4086
:101DD000D4470010416A0B46826A416A8B42FAD1AD
:101DE00010467047034B596A0A46986A596A9142ED
:101DF000FAD1704700000B40074A536A9942FCD859
:101E0000994207D1044B02E05A6A914202D19A6A80
:101E10008242F9D3704700BF00000B4000EB400C3A
:101E20004FEA8C0C0CF1804C0CF5803C70B5DCF862
:101E30000440A0F1040EB4F5803F38BF4FF4803465
:101E40005FFA8EFE38BFCCF80440BEF1010F29D9ED
:101E50004FF40066244D0CF54054266055F8206080
:101E6000BEB9DCF800400CF5805684EA421202F05C
:101E7000E002BEF1010F326028D94FF4006145F84D
:101E800020304FF480330CF500521160CCF8043050
:101E900070BD6C69B4FBF6F4013404EB4404033CFC
:101EA000FDD2DEE70129D3D103250CF5405425608E
:101EB000DCF80840E407FBD5DCF800400CF5805660
:101EC00084EA421202F0E002074D32600122DCF89F
:101ED00000404C4004F00304346002FA01F1DCF8E5
:101EE00008200A42FBD0C8E794190020014B53F8A0
:101EF000200070479419002070B4039C05682403E7
:101F000044EA03431B4C002DB4FBF1F4B2FBF4F2A2
:101F10001FDB194D194CA8420CBF4FF400454FF47C
:101F20008045174E256004F580542560B46835EA75
:101F30000404FBD1212500F5405404340160826083
:101F400025600268002AFCDA0822C360226070BCA7
:101F50007047046804F03F048C42DAD18468C4F30B
:101F60000B049442D5D1C46804F4EE249C42D0D131
:101F7000EDE700BF001BB7000080054000200240D5
:101F80000000024030B44FF08045184B184A194CFD
:101F9000DA61194A03F540531D6094604FF0E06226
:101FA00049B1A3F580531A6040B930BC4FF00042EC
:101FB000124B1A6070471A600028F6D04FF47A73FB
:101FC00003FB00F0B0F1807F09D20D4B18604FF099
:101FD000804230BC0549094B48601A6070476FF079
:101FE0007F43074A18461360F1E700BF00800D40A9
:101FF0002131B76AF3FFFF0100A0014000A00D40AE
:10200000CC1F0020012300EB4000800000F1804045
:1020100000F5841041600360704700BF10B50024D4
:1020200082B00B46E48A002141E800F1CDE90003CB
:102030004B0254BF1021042144F25220A047DDE995
:10204000002386460A214FF48170F44602B0BDE8B1
:10205000104060470023DB8A002242E800F252026F
:1020600001D4102118470421184700BF08B50346C2
:1020700008462BB193FAA3F3B3FA83F341F020009F
:102080001946FFF7CBFF00BF034AD2F82838002BD0
:10209000FBD0BFF35F8F704700000E400021044B60
:1020A000044ABFF35F8F43F8041B9342F9D1704792
:1020B0000C080E402C080E4010B44FF48D704FF4F5
:1020C0002A64064A064B07491460D06019605368B9
:1020D000002BFCDA5DF8044B704700BF0080044021
:1020E00000A0044000B0FA00704700BF08B50148E6
:1020F000FEF7F8FFF847001038B5054C054DAC4227
:1021000004D254F8043B9847AC42FAD338BD00BF20
:10211000084600104846001010B40748074C084B0A
:10212000084A094904601A608B6832EA0303FBD14C
:102130005DF8044B704700BF002002407F3BEFEF8B
:1021400000300240F6FFF30300000240044BDB6C5A
:10215000B3F5004F03D14FF48022024BDA6470478D
:1021600000001150002011504FF0E022044BD2F833
:10217000881D0B43C2F8883D10EE3004704700BF45
:10218000030330006FF06041044B054A1960936807
:10219000DB4333F06043FAD1704700BF00300240A8
:1021A0000000024010B545F25320FFF753FFBDE891
:1021B000104003460420184710B545F25320FFF79E
:1021C00049FFBDE81040034601201847FFF742B819
:1021D00010B5054B054C4FF488721846A16802F003
:1021E000F3F8A06010BD00BF0000002000ED00E08B
:1021F0000023F0B52B4C83B0C4F88430FFF75CFFAC
:102200000122294BDA63636C012BFCD10321264A9E
:10221000244B11639D6B012DFCD1052302271E4623
:1022200000242946214A22480097FFF765FE2946E7
:102230003346204A20480096FFF75EFE3946224684
:1022400004201E4BFFF7EAFD2946224630461C4B70
:10225000FFF7E4FD2246082021461A4BFFF7DEFD7A
:10226000224609202146174BFFF7D8FD22460620BB
:102270002146134BFFF7D2FD114B22460720214682
:10228000FFF7CCFD0420FFF731FE0F4DA5FB003515
:10229000AD0CE0B229460134FFF7B4FE062CF8D1AC
:1022A00003B0F0BD0000014000300140002F68592C
:1022B00000000540008C864700800540001BB700E9
:1022C00080D1F008006CDC0283DE1B430022002971
:1022D00080F2A980404261EB4101B1B3B1FA81F3D0
:1022E000083B16D4994010FA03FCC3F1200320FAEE
:1022F00003F040EA0100A2EB0302C2F195021CEBDD
:102300000C0C40EBC25040F0004020D0FE2A16D208
:10231000704703F1210311FA03FC5CEA000CC3F1DE
:10232000210321FA03F0A3EB020202F1B50240EB14
:10233000C25040F000400AD0FE2A38BF70474FF02C
:102340000040A8BFCFF68070704711460AE028BF52
:1023500020F00100FE2A38BF7047F0E7002880F225
:1023600033804042B0FA80F3083B0CD4984001EB34
:102370000302C2F1950200EBC25040F00040FE2A79
:1023800038BF704713E003F1210310FA03FCC3F1D7
:10239000210320FA03F0A3EB010202F1950240EBC6
:1023A000C25040F0004008D0FE2A38BF70474FF0BE
:1023B0000040A8BF40F0FF40704728BF20F0010058
:1023C000FE2A38BF7047F2E720B3B0FA80F3083B2B
:1023D0000AD4984001EB0302C2F1950200EBC2500F
:1023E000FE2A38BF704711E003F1210310FA03FC05
:1023F000C3F1210320FA03F0A3EB010202F19502DD
:1024000040EBC25007D0FE2A38BF7047ACBF4FF038
:10241000FF400020704728BF20F00100FE2A38BF8F
:102420007047F3E7002289B3B1FA81F3083B14D473
:10243000994010FA03FCC3F1200320FA03F040EAAC
:102440000100A2EB0302C2F195021CEB0C0C40EB65
:10245000C2501ED0FE2A14D2704703F1210311FA94
:1024600003FC5CEA000CC3F1210321FA03F0A3EBA7
:10247000020202F1B50240EBC2500AD0FE2A38BF78
:102480007047ACBF4FF0FF40002070471146FFF788
:102490009BBF28BF20F00100FE2A38BF7047F0E73D
:1024A00000219539C215A2F10103A0EBC350DBB2A4
:1024B000FE2B22D2C9182ED4B1F1200314DAB1F1C7
:1024C00008030CDD0002D3F1200130FA01F198403D
:1024D000002AA8BF7047404271EB41017047884015
:1024E000D1174840401A7047082B0ADA984080EA12
:1024F000E27101EBD2710020704709D8410218BF88
:1025000000226FF0004101EBD2716FEAE270704778
:10251000002000217047494281F30501C84090EA3C
:10252000E27010EBD270C1177047000000B970471D
:1025300000F0FEB810B5094B84B01C684CB10346DE
:1025400000914FF0FF3203A90548A047012004B0D5
:1025500010BD00F02BF9204604B010BDC81F0020AC
:102560002D25001000BEFDE708B5FFF7FBFF00BFFB
:1025700038B5064D064CFFF7BFFDAC4204D254F807
:10258000043B9847AC42FAD338BD00BF5046001018
:10259000484600100368084611461847437D2DE958
:1025A000F04782460F469146002B44D0002A2ADD90
:1025B000002401252046DFF88C804E1E2CB3337892
:1025C00016F8012FA3F10D03B3FA83F30A2A4FEA99
:1025D000531320D02B46994504F1010405F1010560
:1025E000ECDC814505DDA9EB0001DAF80030384468
:1025F00098474F4417F8013CA3F10D03B3FA83F356
:102600005B098AF81430BDE8F08716F8012F9AF8B4
:1026100014300A2ADED1002BDCD1A04204DA211AC0
:10262000DAF800303844984740460221DAF80030A2
:1026300098472846CEE73846DAF800301146BDE81C
:10264000F0471847A04800102DE9F04782B00D462A
:10265000924699460746FFF7C5FB2F4A821841F17B
:102660000003002BBCBF4FF0FF326FF000432B483C
:1026700001F0C6FF6B1C804603D1384601F06CFFA9
:102680000546274B274E1C68274BB9F1000F08BFA2
:102690001E46B4B1BAF1000F1AD1DFF8909001E0F4
:1026A000246974B12368002BFAD0D9F800300BB13B
:1026B000A342F5D120462A463946B0472469002C6A
:1026C000F0D1B8F1000F1FD1284602B0BDE8F08765
:1026D0004FF00A0ADFF8549002E02469002CF0D091
:1026E0002368002BF9D0D9F800300BB1A342F4D104
:1026F00020462A463946B047204601220DF10701FF
:102700008DF807A0B047E8E7044801F06DFF2846C0
:1027100002B0BDE8F08700BF40420F003411002036
:10272000BC1B00209D25001095250010C41B002017
:10273000F0B583B006468DF80700FFF753FB174A44
:10274000821841F10003002BBCBF6FF000434FF033
:10275000FF32134801F054FF124B07461C689CB12E
:10276000114D01E024697CB12368002BFAD02B685D
:102770000BB1A342F6D1204601220DF10701FFF76C
:102780000DFF2469002CEFD117B9304603B0F0BD1E
:10279000034801F029FF304603B0F0BD40420F006E
:1027A00034110020BC1B0020C41B002038B5044697
:1027B00001F0D2FE012305461A4620462946FFF7BE
:1027C00043FF084B1C682CB163682BB19847246900
:1027D000002CF9D1284638BD2469002CF4D12846B4
:1027E00038BD00BFBC1B0020012307480749084A29
:1027F00003600B609368D907FCD50123054A136079
:102800001368DB05FCD57047002002400030024011
:102810000000024000000A40F8B500F03BF90C232C
:1028200040271A4D1A4CAB67FF220E201949FEF7BC
:1028300083FD3A460021204601F03CFE164B01265E
:10284000A36280210023154A6670A260843A278320
:1028500027876184C2F88430C2F88030636084F8CE
:10286000213084F83B3063620D4BE360E36201F09A
:10287000BFFE4FF000544FF480320A490A4B2E64D9
:102880003046EC64C5F89010DA64F8BD00001150D1
:10289000C81B0020550300208000105084001050F9
:1028A0000001105010D001000020115001210E2015
:1028B000FEF7FCBC00220248114600F00BB900BF35
:1028C000E81B0020044B197021B14FF40032034B78
:1028D000C3F89020704700BF8122002000201150D3
:1028E0000B785B0602D14B78052B00D070474B88E4
:1028F000014ADBB21360704700001150CB782DE91C
:10290000F04103F0030EBEF1010FC3F301005FD0ED
:10291000002791F802C0374D0CF07F0256008988DD
:1029200006EBDC1305EB43134FEADC14C1F30A0199
:10293000D87684F0010083F802C019835870DF70E4
:1029400094BB04232C4803EBC20305EB821C03EB6E
:102950000008CCF808801F508AB3284BD2001344DB
:10296000CCF804303F31BEF1020F21F03F013AD0E4
:10297000234A3719136805EB471719441160214A98
:10298000FB60914231D8344405EB4415E97E83F075
:10299000A04383F480136A6843EA816343F00043F1
:1029A00001201360BDE8F081134813B200EBC208A8
:1029B00005EB821CCCF8288040F833705AB900230C
:1029C000114A05EB44140120E2606360BDE8F08128
:1029D0000020BDE8F081D20002F1A04202F5801291
:1029E000CCF82420BEE74900C2E7FFF77FFBFB6875
:1029F000C9E700BFC81B0020800010500400105021
:102A0000D81F0020FF0F10500001105001F0F0BD42
:102A10008C4608B5114607481A460CF07F034FEA6A
:102A2000DC1C0CEB430C00EB4C1000F053F80120C5
:102A300008BD00BFC81B002011F07F000AD0C909E3
:102A4000074B01EB40004FF40062002103EB401004
:102A500001F0D2BD034BC909C1F102029A66EFE74A
:102A6000C81B00200020115011F07F0300D17047D7
:102A7000002210B4C809064C00EB430004EB4013DD
:102A80006FF4006118465DF8044BDA7001F0B4BDD4
:102A9000C81B00204FF0805209480A4908B50A4B6C
:102AA00002600A609968C94311F08051FAD14FF46D
:102AB0008052064801F0FEFC0922054B5A6708BD0A
:102AC0000020024000300240000002400000105090
:102AD00000001150837E10B50446BBB94FF0000CC6
:102AE00001232046A2822161A4F816C0A37601F03A
:102AF00073FD20B14FF40032084BC3F890202046FC
:102B000001F066FD28B10123237710BD01F054FDCB
:102B1000E4E72046BDE8104001F056BD002011500A
:102B2000002070472DE9F0414FF000081C4C07468B
:102B3000424623781B4E1C4D0DE02B6813EB4213CD
:102B400025D0DB683846984708F1010823785FFAFA
:102B500088F2934206D39342A2EB0303EDD806EB2F
:102B60004313EEE7114C54220021204601F0A2FC51
:102B70004FF0FF33251D6360C5E90133EB6004F1BD
:102B800014002022BDE8F041FF2101F093BC4FF07A
:102B9000E023D3F8F03DDB0700D500BEBDE8F081AF
:102BA0008022002000490010E4130020701800204B
:102BB000704700BF704700BF00207047002070477B
:102BC00000207047704700BF704700BF704700BFCC
:102BD000704700BF024B5878003818BF012070477B
:102BE00070180020024B1878C0F38000704700BFB7
:102BF000701800202DE9F047364F3B78FF2B4ED15F
:102C00000C4600294FD0002154220646324801F0DC
:102C100051FC0022314D324B28461A70FEF70EFD52
:102C2000304B1D60304D05F11400FEF715FD2846B0
:102C300001F06EFB2D4B1D602D4B23B12D48AFF3E2
:102C400000802D4B18604FF0000A2A4D53462A7819
:102C5000DFF8A890DFF8A0800CE0D8F8002012EB95
:102C6000431311D05B687BB198472A785FFA8AF3E7
:102C70009A4222D393420AF1010AEED39B1A09EB3E
:102C800043135B68002BEFD14FF0E023D3F8F03D06
:102C9000DA0700D500BE00242046BDE8F0870124F5
:102CA0002046BDE8F0874FF0E023D3F8F03DDB0786
:102CB000F1D500BE2046BDE8F087214630463E7083
:102CC000FFF7AAFD04460028EDD03046FFF7EEFDE1
:102CD000E6E700BF281100207018002068180020C7
:102CE00082220020C41800200C110020C8180020E7
:102CF0000000000080220020E413002000490010A2
:102D00002DE9F04FDFF8BC928BB099F80030FF2B23
:102D100000F0EC80A64CDFF8B0A2DFF8B0B2256876
:102D20006B69EFF3108272B6D3E8CF0F0121002850
:102D3000FAD1C3E8401F0028F6D1BFF35F8FAA6124
:102D4000284607A901F040F900236A69C2E88F3FCD
:102D5000AB6983F31088002800F0C8809DF81D300F
:102D6000013B072B00F27983DFE803F0A4AF9099D1
:102D700088360A04089B002BD1D009989847CEE7E3
:102D80009DF820108B4B01F07F0503EB450303EB0F
:102D9000D11393F834206FF3000283F8342093F8B2
:102DA00034206FF3820283F83420002D00F0A180DC
:102DB00081481A7D03789A4280F09080DBF80030D9
:102DC00013EB421300F08B809D699DF82120099B35
:102DD0009DF81C00A847A2E7784A1378002B7ED004
:102DE0001378013BDBB21370137803F0FF00002B64
:102DF00095D1704D9DF81C802B7843F001032B700A
:102E000095F8343060F3000385F8343095F83430A9
:102E100060F3820385F8343095F8353060F30003B1
:102E200085F8353095F8353060F3820385F8353014
:102E300000F078FC9DF8203003F06002602A0BD08F
:102E4000402A60D003F01F03012B00F0C180022B49
:102E500000F08680002B62D04FF0E023D3F8F03DE5
:102E6000DD0700D500BE9DF81C000021FFF7E4FD42
:102E700080219DF81C00FFF7DFFD50E74D4B1B78CC
:102E8000D9077FF54CAFFFF7A3FE48E7494BDB7846
:102E9000DA077FF544AF0898FFF78CFE3FE7454B14
:102EA0001A78D0077FF53BAF1878C0F3C000FFF762
:102EB0008DFE34E79DF81C00FFF734FE00F028FC7F
:102EC0003C4B9DF820209A7029E79DF81C00FFF7E5
:102ED00029FE00F01DFCFFF777FE20E711D04FF030
:102EE000E023D3F8F03DDC0700D500BE0BB0BDE811
:102EF000F08F099B9DF821209DF81C0000F026FC16
:102F00000DE7534660E72E4800F00CFC40460121D7
:102F100008AAFFF705FE00287FF401AFA3E7202AE7
:102F200000F08081002A97D19DF82130092B93D899
:102F300001A252F823F000BFC3310010A7310010E6
:102F4000592E0010E5310010592E00108D3100105F
:102F50003B310010592E0010253100105730001061
:102F60009DF8241011F0700F7FF476AF124B01F032
:102F70007F06187805EB460303EBD1131B7DCF09C1
:102F800083424FEA4606019753D340F06881574683
:102F9000002A00F06881786900F0C4FB40460121F6
:102FA0007B6908AA984700287FF4B9AE5BE700BFA9
:102FB000C8180020701800208022002082220020E3
:102FC000212B00102811002000490010E4130020DC
:102FD0009DF824300F2B3FF646AFAE4A2B441B79A9
:102FE0001278934230D37FF43EAF5546686900F0C3
:102FF00099FB012140466B6908AA984700287FF495
:103000008EAE9DF8203013F060057FF42CAF9DF854
:1030100021300A3B012B3FF626AF00F083FB9DF8E1
:1030200021300A2B00F0EE81404608A900F0F0FAAA
:1030300075E6DBF8007007EB4317002A00F01381F8
:10304000002F3FF410AFA6E7DBF8005015EB431557
:103050003FF409AFCAE76B789DF822609E4200F00A
:103060004A816B78002B40F0BB816E70002E00F01F
:103070004081701EC0B2FDF793FF002800F05C8114
:103080004378022B40F058812B78C27923F030012D
:10309000C2F340131B01C2F3801243EA42130B43F5
:1030A0002B70438800F10907C3180293CDF80C80F8
:1030B000029BBB4240F2A1817B780B2B00F0AC81DC
:1030C0004FF00108042B40F037810026029B39465F
:1030D000DA1B704B37461B78019692B21BE0DBF887
:1030E000006016EB471600F02781019B039801331F
:1030F00001933369CDE904129847DDE904120828E9
:1031000002D9824280F0FC80624B9DF804701B78EB
:10311000BB42C0F01181BB42A7EB0303DFD80AEB2F
:103120004316E2E76B7840468DF81A300DF11A022B
:10313000012308A900F086FAF1E5BDF82200030A90
:103140005A1EC0B20E2A3FF68EAE01A151F822F0EF
:103150006933001001320010A5330010672E0010F3
:10316000672E00108733001001320010672E001008
:10317000672E0010672E0010672E0010672E0010BB
:10318000672E0010672E00105B33001008A800F0B7
:10319000CFFA40469DF82210FFF78CFB2B7843F0C6
:1031A00002032B70BBE5BDF82230012B7FF45BAE30
:1031B0002B7840466FF3C30308A92B7000F028FA60
:1031C000ADE540462B789A0802F00202C3F34013A3
:1031D0001343ADF81A300DF11A02022308A900F0CA
:1031E00031FA9CE5BDF82230012B7FF43CAE2B7800
:1031F000404643F0080308A92B7000F009FA8EE559
:10320000022B00F00F81FFF7DBFC024600283FF4A1
:103210002AAE4046538808A900F014FA00287FF42B
:103220007EAD20E69DF824300F2B3FF61CAE194AE8
:103230002B441B791278934227D2DBF8005015EB10
:1032400043153FF410AE686900F06CFA4046012166
:103250006B6908AA984700287FF461AD03E6002A4D
:103260007FF401AE00279DF8212002F0FD03012B21
:1032700012D0002A7FF4F0AD019B35442B4493F823
:1032800034304046C3F34003A3E77FF4ECAD55462A
:10329000D9E700BF80220020BDF82230ABB9012A57
:1032A00000F0888099F80000FFF7C6FB019AAB197F
:1032B000134493F8342042F0020283F8342093F848
:1032C000342042F0010283F83420002F3FF427AD70
:1032D000786900F027FA7B69012108AA40469847DF
:1032E000002000F01FFA95F83530DE073FF517ADE6
:1032F0009AE6FFF769FC404608A900F089F90EE557
:10330000B8F1010F33463E460F4600F09F80B8F1FA
:10331000000F00F08E800023B97804E01671DAB255
:10332000904540F28680CA1855FA82F292F804C09D
:103330000133BCF1FF0FF1D04FF0E023D3F8F03DA3
:10334000DB0700D500BE4FF0E023D3F8F03DDF07E8
:1033500000D500BE00236B7085E5FFF72DFC02460B
:1033600000287FF456AF7EE5FDF716FE02460028E2
:103370003FF472AD4046122308A900F063F900281B
:103380007FF4CDAC6FE5FFF719FC024600283FF44F
:103390006AAD4046137808A900F054F900287FF47C
:1033A000BEAC60E5BDF82410FDF7FEFD0246002826
:1033B000EFD158E599F800000293FFF755FB019B08
:1033C000AA191A4492F83410029B63F3410182F85F
:1033D000341092F8341063F3000182F8341074E76B
:1033E00000214046FFF76EFA4046FFF70FFBAF782B
:1033F0004046FFF797FBAF7037E6DDF80C80FFF72C
:10340000E1FB78E74046012308A90DF11A028DF887
:103410001A5000F017F982E43B7897F803801F44B4
:103420007B784FE6FDF7BCFD024600287FF4F1AE45
:1034300012E539460246334607440C4800F03AFD8F
:103440000B4B1B78B342BFF433AE75E71B69094AD7
:10345000934208BF4FF002085DE74FF0E023D3F836
:10346000F03DDB077FF55BAC00BE58E4841800201C
:10347000802200203D3B00102DE9F84F0A9F002AD2
:1034800040D00C461E4615464FF0000ADFF87C90EF
:10349000DFF87C8018E0204698F8021099F800B018
:1034A00000F0D4FCE0B121465846FFF727FAF0B10E
:1034B000A2780AF1010AD30916BF0B9B3A701A7061
:1034C0002278AA4514441DD06278052A0FD1E178EC
:1034D00001F00301B1420AD1A27812F0700FDAD0E4
:1034E0004FF0E023D3F8F03DDA0700D500BE4FF0EF
:1034F000E023D3F8F03DDB0702D40020BDE8F88FCD
:1035000000BEFAE70120BDE8F88F00BF28110020B7
:103510007018002038B58B7813F0700F08D04FF07A
:10352000E023D3F8F03DDB0700D500BE002038BD16
:10353000074A084B0C46084691781D7800F086FC37
:103540000028ECD021462846BDE83840FFF7D6B920
:1035500070180020281100200B46064A0648116802
:10356000DA09343203F07F0302EB4303184400F01E
:1035700027BC00BFC4180020701800200B46064A64
:1035800006481168DA09343203F07F0302EB430383
:10359000184400F03FBC00BFC41800207018002081
:1035A00010B5194C01F07F0C04EB4C0404EBD11066
:1035B00090F834C01CF0010F08D04FF0E023D3F88E
:1035C000F03DDA0700D500BE002010BD90F834C0F1
:1035D00000F130040D484CF0010C007884F804C070
:1035E000FFF716FA0028F0D14FF0E022237960F3BC
:1035F00000032371237960F382032371D2F8F03D35
:10360000DB07E1D500BE10BD701800202811002096
:1036100030B50B4C8C46A646002305460868496821
:103620001A46AEE803009CF9001028469942C4E906
:103630000233BDE83040ACBF80211946FFF7B0BF70
:10364000F41700202DE9F0412F4F4FF00008BE463F
:103650008C46064608684968BA60AEE80300A7F8D9
:103660000E80BCF8065082B0AB4228BF2B46BB810F
:103670009DB14BB314467AB397F90020402B28BF75
:103680004023002A32DB4146204A3046FFF788FFBC
:1036900080B1012002B0BDE8F0819CF900202B46EA
:1036A000002AACBF802100212A463046FFF778FF70
:1036B0000028EED14FF0E023D3F8F03DDB0711D521
:1036C00000BE02B0BDE8F08197F900101A4600294B
:1036D000ACBF19468021D8E74FF0E023D3F8F03D86
:1036E000DA070DD4002002B0BDE8F0811A46214669
:1036F0000648019300F068FE8021044A019BC4E75C
:1037000000BE2046C6E700BFF4170020B417002013
:103710000022034BC3E90022C3E902221A61704769
:10372000F4170020014B1861704700BFF417002008
:1037300030B40246044C0025234600685168C4E9B1
:10374000025530BC03C37047F417002070B5414CDC
:10375000C90922780546B1EBD21F1E4682B021D09E
:103760004BB14FF0E023D3F8F03DDA0700D500BEAF
:10377000002002B070BD2146FFF7B2F8236973B193
:103780002246032128469847012002B070BD014619
:103790002846FFF751F980212846FFF74DF901200F
:1037A00002B070BD94F90020002A06DBA068002852
:1037B000DED01A46284900F007FEE089A168E288B9
:1037C000304480B231448242E081A16016D03F2E65
:1037D00014D9A28994F90040131A9BB2402B28BF38
:1037E0004023002C27DB90424FF000012FD01A4AD3
:1037F0002846FFF7D5FE0028D1D114E023692BB16C
:1038000002212846134A98470028C0D0002394F983
:10381000002028469A42ACBF802119461A46FFF77D
:10382000BFFE0028BBD14FF0E023D3F8F03DDB070B
:103830009ED500BE9DE7904208D01A4606480193E7
:1038400000F0C2FD8021044A019BD1E780210022C3
:10385000CEE700BFF4170020B41700202DE9F04197
:103860000546FFF7B7F908B9BDE8F081FFF7BAF9E7
:1038700007460028F8D14FF4527305FB03F3134CAD
:10388000E618F1780029EFD010331C44204600F0F0
:1038900089FB3F28E8D93846F178FFF75DFE00281C
:1038A000E2D0204600F07EFB3F2809D9084A38467E
:1038B000F17802EBC5124023BDE8F041FFF770BE7E
:1038C0003846F178BDE8F041FFF758BE6C1400208F
:1038D000E81300204FF4527208B5034B02FB00308E
:1038E000103000F045FB08BD6C1400202DE9F843B2
:1038F0004FF6FE764FF6FF734FF45274B24298BF04
:10390000134600FB04F41B4D9AB204F11003EF18A8
:103910000646384600F0A2FB8046FFF75BF910B977
:103920004046BDE8F883FFF75DF981460028F7D1EE
:103930002C44E378002BF3D0384600F033FB3F28CB
:10394000EED94846E178FFF707FE0028E8D0384670
:1039500000F028FB3F2808D9074A48464023E17871
:1039600002EBC612FFF71CFEDAE74846E178FFF7E4
:1039700005FED5E76C140020E81300202DE9F04186
:103980000646FFF727F910B90020BDE8F081FFF7E0
:1039900029F907460028F7D14FF4527406FB04F4C6
:1039A000DFF8688004F124054544284600F0E0FA79
:1039B0000028E9D0A044384698F80210FFF7CCFD63
:1039C0000028E1D04022104902EBC6160E442846DA
:1039D000314600F043FB044678B103463246384690
:1039E00098F80210FFF7DCFD58B94FF0E023D3F848
:1039F000F03DDB07C8D500BEC7E798F80210FFF717
:103A0000BDFD2046C1E700BFE81300206C14002074
:103A100038B54FF6FE754FF6FF734FF4527CAA424D
:103A200098BF13460B4C9AB20CFB00442434054655
:103A3000204600F0BFFB034620461C4600F098FAE3
:103A40003F2801D8204638BD2846FFF797FF20467B
:103A500038BD00BF6C140020F0B500251A4C83B0AF
:103A600029464FF45272204600F024FDFF234FF404
:103A7000E1310822154863710570A160A27304F159
:103A8000380101234FF48072009504F1100000F01A
:103A90003DFA01234FF4007204F59C71009304F584
:103AA0004E7704F1240000F031FA04F550763846E0
:103AB000FDF7C4FD3046FDF7C1FDC4E90757C4E971
:103AC0000C6503B0F0BD00BF6C140020681400202A
:103AD000064B1A6A196B12B10022C3E9072211B111
:103AE0000022C3E90C220120704700BF6C140020A3
:103AF000002210B50E4C0F48237802600271DA07DD
:103B000007D59B070BD5BDE8104001210A4800F0FE
:103B10001BBC103000F0FCFB23789B07F3D4064855
:103B200000F0F6FBBDE810400121034800F00CBC9A
:103B3000681400206C14002090140020F0B54B791C
:103B400083B0022B02D18B79022B03D000252846AB
:103B500003B0F0BD264FBB783BB14FF0E023D3F864
:103B6000F03DDB07F2D500BEF0E78B7806463B70F0
:103B70000C7809250C44617824290BD1082A02D835
:103B80000FE0AA420DD323781C4461782B442429EA
:103B90009DB2F6D005290AD0042902D163790A2BF7
:103BA00013D00020FFF75AFE284603B0F0BD21468F
:103BB0003046FFF7AFFC0028CFD0A3787B70237886
:103BC0001C442B4461789DB2E6E70A4B27780193A9
:103BD00001330093022330461A46E119FFF74CFCEB
:103BE0000028BAD005F10E0317FA83F39DB2D8E787
:103BF0006C1400206E140020137803F06003202B57
:103C000008D170B5284C938894F800C09C4503D027
:103C1000002070BD002070475378203B032BF7D85D
:103C2000DFE803F028240D02012930D003291FD139
:103C30001E4BEBB100205188AFF3008018E0012942
:103C400025D0032914D15588194805F0010686F0BE
:103C50000101257100F078FB164B4BB13146002075
:103C6000C5F34002FCF724FC012070BD012913D0EC
:103C7000012070BD01290FD00329F9D10E4B002B73
:103C8000F6D000200D49FCF715FC012070BD11464F
:103C9000FFF7BEFC012070BD11460723074AFFF75E
:103CA000D1FC012070BD00BF6C140020000000009A
:103CB00090140020B1040010B5040010741400200A
:103CC0002DE9F047374D0C46EA7807468A421E46F2
:103CD00055D1DFF8E8809AB2414605F1100000F0B6
:103CE00069FA314BC3B16B79FF2B15D0A6B105F141
:103CF000100908EB060A02E0D0450DD06B7918F8E0
:103D0000012B9A42F8D1484600F042F90028F3D13D
:103D10006979AFF30080EFE7244B23B1244800F02A
:103D200037F900283AD00020FFF798FDAB78A3427E
:103D300003D001242046BDE8F0871E4B13B10020BC
:103D4000AFF300800020FFF719FE0028F1D11A48D8
:103D500000F00EF90028ECD1002EEAD016F03F0654
:103D6000E7D13846A978FFF7F7FB04460028E0D0F2
:103D7000334632463846A978FFF712FCDAE7AB78CB
:103D80008B42DAD04FF0E023D3F8F04D14F0010469
:103D9000D0D000BE00242046BDE8F087AFF30080FD
:103DA000C1E700BF6C14002000000000000000000C
:103DB0007C1400200000000090140020E813002074
:103DC000F8B5037813F001041AD1037805465A07B1
:103DD000C3F3800701D52046F8BD0E464FF0FF31F2
:103DE000304600F0EDFB2B7813F001040BD12B785B
:103DF0005B0709D42B78012443F004032B7003E004
:103E000000242046F8BD3C46304600F0EDFB20463D
:103E1000F8BD00BF70B50D4604464FF0FF3128468F
:103E200000F0CEFB2378C3F380065B0708D5237828
:103E300013F0010211BF0026237862F3820323707E
:103E4000284600F0D1FB304670BD00BFC3788288A1
:103E500003F003000228C2F30A0205D003281BD096
:103E6000012807D00020704702291ED0402A09D817
:103E700001207047022940F2FF3308BF4FF48063EE
:103E80009342F6D24FF0E023D3F8F00D10F001008A
:103E9000EFD000BE0020704702290CBF4FF48063B2
:103EA00040239342EED30120E3E7B2F5007FDFD059
:103EB000E8E700BF0A44914226D291F801C0BCF164
:103EC000050F05D091F800C061448A42F5D87047CB
:103ED00000B591F802C00CF07F0E00EB4E0E4FEAD9
:103EE000DC1C0EF80C3091F800C061448A4209D9FC
:103EF00091F801C0BCF1050FEBD091F800C061440E
:103F00008A42F5D85DF804FB704700BF2DE9F04107
:103F1000B2F5004F9DF8188027D80446C0681746B0
:103F20000E461D4618B14FF0FF3100F049FB2069E5
:103F300018B14FF0FF3100F043FB0022C5F30E0330
:103F4000E06843EAC83362812660A780E38022816B
:103F500008B100F049FB206920B100F045FB0120C9
:103F6000BDE8F0810120BDE8F0810020BDE8F081CE
:103F7000038942899BB292B28088934236BFC2EBDA
:103F800040029B1A9B189BB2984228BF1846704764
:103F90000289438990B29BB2C01AB0FA80F04009FE
:103FA000704700BF038942899BB2808892B29342D6
:103FB00036BFC2EB40029B1A9B189BB2984286BF49
:103FC000C01A80B20020704738B5044600690D461B
:103FD00018B14FF0FF3100F0F3FA2189638989B2FB
:103FE0009BB2A288994236BFC3EB4200C81A401860
:103FF00080B250B3824209D291422CBF891A8918EB
:104000008BB29A42638103D89B1A9BB29A42FBD926
:10401000E2882168C2F30E0202FB0311284600F079
:10402000D3F96189012589B24B1C9BB29942A288C0
:104030000ED9002302FA05F15B1A9BB22069638155
:1040400008B100F0D1FA284638BD054663899BB215
:10405000B3EB420F4FEA4201F0DBEDE72DE9F04709
:10406000064600698846914618B14FF0FF3100F0CE
:10407000A7FA338974899BB2A4B2B588A34236BF2C
:10408000C4EB45071F1BFF18BFB2002F48D0BD422D
:104090003ED34F4528BF4F46A542BFB203D8641B4D
:1040A000A4B2A542FBD9F2882B1B31689BB2C2F3A4
:1040B0000E0C9F42E2460CFB041123D913FB0CF3B8
:1040C0001FFA83F94A46404600F07EF97A1B2244E3
:1040D00012FB0AF2316808EB090092B200F074F9A1
:1040E0007289B58892B2D3199BB29A421AD96A00E2
:1040F0009B1A9BB23069738108B100F075FA38469B
:10410000BDE8F08740460CFB07F200F05DF9E7E7F9
:10411000AB422CBF5B1B5B199CB22F467481B8E786
:1041200073899BB2B3EB450F4FEA4502E2DBDFE751
:10413000F8B50446C0680E4618B14FF0FF3100F0E4
:104140003FFA2589238961899BB289B2A2888B4273
:1041500036BFC1EB42015B1A5B189BB29A42ADB20B
:1041600008D8E779FF0905D1E06808B100F03CFA0A
:104170003846F8BD95422B4603D39B1A9BB2934217
:10418000FBD2E2882068C2F30E0202FB0300314634
:1041900000F01AF96B1CA2889BB29D424FEA4201C3
:1041A00004D95B1A9BB201272381DDE7B3EB420FF1
:1041B000F9DBF6E72DE9F04F144683B0002A5CD016
:1041C0000546C0688B4618B14FF0FF3100F0F8F992
:1041D000EA792F896B89D209BFB29BB23BD1AE88F5
:1041E0009F4236BFC3EB4603FB1ADB199BB29E42CC
:1041F00048D9A6EB03081FFA88F8A04528BFA046B7
:10420000B5F806A008EB07091FFA89F9BE423C463B
:1042100003D8A41BA4B2B442FBD2331B28689BB2C0
:10422000CAF30E024345924602FB040055D3594699
:1042300002FB08F200F0C8F8AA88B9454FEA420329
:1042400002D3B9EB420F03DBA9EB03091FFA89F98B
:10425000A5F8089018E0B5F8048044451DD3B5F8DA
:1042600006A0A4EB0804CAF30E0202FB04BBB8F1DB
:10427000000F09D01F464646C4E79046404603B0AB
:10428000BDE8F08F4FF00008E8680028F6D000F095
:10429000ABF9404603B0BDE8F08F9F4236BFC3EB99
:1042A0004802FA1AD21992B24FEA480122448A42CD
:1042B0000ADB03EB08091FFA89F9A9EB0407BFB26F
:1042C000BB421ED97F1ABFB204EB07094646B5F8B8
:1042D00006A0A0461FFA89F998E713FB02F3594696
:1042E0009AB2019200F070F8019A28680BEB020173
:1042F000A8EB0602224412FB0AF292B200F064F824
:104300009AE7B942DEDD4646B5F806A0A0467DE74D
:1043100010B50446C06818B14FF0FF3100F050F9F5
:10432000206918B14FF0FF3100F04AF90023E0682E
:104330006381238108B100F057F9206908B100F0CA
:1043400053F9012010BD00BF38B50446C0680D46C2
:1043500018B14FF0FF3100F033F9206918B14FF078
:10436000FF3100F02DF9E379E06865F3C713E371DD
:1043700008B100F039F9206908B100F035F90120E1
:1043800038BD00BF08B51920FCF78AFE19230122A9
:1043900042EC443008BD00BF00B545F247308BB059
:1043A000FDF758FE01220346092101A89847DDE9DF
:1043B0000332044912BA1BBAC1E900230BB05DF8FD
:1043C00004FB00BF74220020844641EA000313F07E
:1043D000030349D1403A23D30B6803604B68436021
:1043E0008B688360CB68C3600B6903614B69436171
:1043F0008B698361CB69C3610B6A03624B6A436259
:104400008B6A8362CB6AC3620B6B03634B6B436340
:104410008B6B8363CB6BC36340304031403ADBD25C
:1044200030320BD30B6803604B6843608B6883604A
:10443000CB68C36010301031103AF3D20C3205D380
:1044400051F8043B40F8043B043AF9D2043208D056
:10445000D2071CBF11F8013B00F8013B01D30B88C8
:1044600003806046704700BF082A13D38B07B1D082
:1044700010F00303AED0C3F10403D21ADB071CBF54
:1044800011F8013B00F8013BA4D331F8023B20F8BE
:10449000023B9FE7043AD9D3013A11F8013B00F8F7
:1044A000013BF9D20B7803704B7843708B788370A3
:1044B0006046704770B5860748D0541E002A3FD02A
:1044C000CAB2034601E0013C3AD303F8012B9D0731
:1044D000F9D1032C2DD9CDB20F2C45EA052545EA9B
:1044E000054536D9A4F1100C03F1200E03F110029A
:1044F0002CF00F064FEA1C1CB64442E9045542E971
:10450000025510327245F8D10CF1010214F00C0F73
:1045100004F00F0C03EB021213D0ACF1040323F0F0
:1045200003030433134442F8045B9342FBD10CF0C1
:1045300003042CB1CAB21C4403F8012B9C42FBD1EA
:1045400070BD64461346002CF4D1F9E703461446C7
:10455000BFE71A46A446E0E720F0030110F003008D
:10456000C0F1000051F8043B00F1040C4FEACC0C00
:104570006FF000021CBF22FA0CF213434FF0010C43
:104580004CEA0C2C4CEA0C4CA3EB0C0222EA030282
:1045900012EACC1204BF51F8043B0430F4D0C2F14B
:1045A000000102EA0102B2FA82F2C2F11F0200EB3C
:1045B000D2007047F8B500BF5FF800F0490A00204C
:1045C0005FF800F0E90100205FF800F0990A002090
:1045D0005FF800F0210A00205FF800F0F9090020E0
:1045E0005FF800F0510D00205FF800F01502002088
:1045F0005FF800F0510200205FF800F0550A00203B
:104600005FF800F07D010020A521001019210010A5
:104610004D210010F1210010852100109D20001077
:10462000CD21001089200010E9150010D1210010C3
:10463000B1190010E9200010B92100106921001003
:10464000451200106D1200105D0200109943001019
:1046500000000000A84600109046001080460010A0
:10466000684600107046001008005000000000006E
:1046700008005000000028000A0050000000000060
:104680000300640000003C00030064000000000020
:104690000A00780000003C000800780000003C00A0
:1046A0000500FA000000000005007800080078000E
:1046B0000C0078000D00FA00000000000000060168
:1046C0001501260137014A015D01720188019F0130
:1046D000B801D201EE010B024B029302100300005D
:1046E0005261737062657272792050690000000037
:1046F000547572746C65426F7433205069636F2017
:104700004F70656E435200005442335049434F305E
:1047100030303100547572746C65426F74332044CC
:10472000796E616D6978656C20506F72740000005D
:1047300009024B00020100807D080B00020202000A
:104740000009040000010202000405240020010504
:104750002401000104240206052406000107058146
:104760000308001009040100020A00000007050206
:104770000240000007058202400000001201000212
:10478000EF0201408A2E0A0000010102030100002D
:1047900000000000E0460010F0460010084700103E
:1047A000144700100A2A2A2A2050414E4943202A41
:1047B0002A2A0A000A0000004E6F207370696E6C8E
:1047C0006F636B732061726520617661696C6162F1
:1047D0006C650000486172647761726520616C618C
:1047E000726D20256420616C726561647920636C50
:1047F00061696D65640000004861726420617373D3
:104800006572740052656C6561736500626F6F74E8
:10481000325F77323571303830000000322E312E61
:10482000310000007069636F3200000074757274AB
:104830006C65626F74335F7069636F5F66770000E9
:104840004665622032302032303236000500525048
:10485000DE65F46898590010060052505422A29D5B
:104860004048001006005250861C03022C480010DD
:1048700006005250BBFF3CB62448001006005250C0
:10488000ABB360531C48001006005250E182887F91
:104890000C48001006005250D3F075420448001036
:1048A0000D0A0000556E68616E646C6564204952A3
:1048B0005120307825780A00657020253032582044
:1048C00077617320616C72656164792061766169DA
:1048D0006C61626C6500000043616E277420636F39
:1048E0006E74696E75652078666572206F6E2069DA
:1048F0006E616374697665206570202530325800DA
:1049000000000000593A0010D13A0010F13A0010AE
:104910003D3B0010F93B0010C13C001000000000BE
:104920004C4544000900525000000002204900108C
:0849300050C4FF0F010000005C
:104938004C48001058480010644800107048001097
:104948007C48001088480010944800102449001042
:104958004FF050412DE9F843002704461646994682
:10496800D1F8008009E02368C3E88F7F8CF31088B2
:104978003046494600F0A0FFE8B92568EFF3108CEF
:1049880072B6D5E8CF2F0123002AFAD1C5E8423FF5
:10499800002AF6D1BFF35F8F94F90450002DE2DAB4
:1049A8000023226884F80480C2E88F3F8CF31088C3
:1049B8000120BDE8F8830020BDE8F88330B5014642
:1049C8000468EFF3108C72B6D4E8CFEF0125BEF17E
:1049D800000FF9D1C4E84E5FBEF1000FF4D1BFF368
:1049E8005F8F90F90440002C11DB00210568C5E8B1
:1049F8008F1F8CF310884FF0504C9CF900C0A445D1
:104A080001D1084630BDBDE83040FFF7A1BF4FF0E7
:104A18005040006800230A680871C2E88F3F8CF391
:104A28001088012030BD00BF70B505460C4600F067
:104A380047FF4FF47A7C02460B46E4FB0C23002B1D
:104A48002846BDE87040BCBF4FF0FF326FF000430E
:104A5800FFF77EBF0368EFF3108272B6D3E8CFCFBB
:104A68000121BCF1000FF9D1C3E84C1FBCF1000FC4
:104A7800F4D1BFF35F8F4FF0FF0C0023016880F87B
:104A880004C0C1E88F3F82F3108840BF704700BF61
:104A9800002108B5134B4FF4707299601248D96021
:104AA800196159619961D961196259629962D9622A
:104AB800196359639963D963196459649964D9640A
:104AC800196559659965D965196659669966D966EA
:104AD800196759679967D96700F0FAFE034B044ACA
:104AE8001A6008BD00001050081C0020D81F0020C4
:104AF800800110502DE9F04F234B85B0D3F858A012
:104B0800BAF1000F25D0002401254FF002081F4FED
:104B180003E06D00DCB2202C1BD01AEA050F04F16B
:104B28000103F6D0E6434FEA540906F0010618FBE4
:104B3800096B174B07EB4B1B9D6558462AEA050A7C
:104B48006D0000F0FBFB38B90134E4B2BAF1000F94
:104B5800E1D105B0BDE8F08F4FF4E063ADF8043063
:104B6800002306EB490607EB4616B2788DF80930A4
:104B7800F38A01A801218DF80820039300F0FEFBB9
:104B8800584600F081FBDFE700001150C81B0020E9
:104B98000030115070B5B24B84B0D3F8985015F46A
:104BA800003674D0AF4BB04C996A94F83B30AF4A9A
:104BB800022B116000F0F980002694F87B30022B5C
:104BC80000F0C88194F8BB30022B00F0B98194F84A
:104BD800FB30022B00F0AA8194F83B31022B00F045
:104BE8009A8194F87B31022B00F08A8194F8BB31CA
:104BF800022B00F07A8194F8FB31022B00F06A81D5
:104C080094F83B32022B00F0598194F87B32022B46
:104C180000F0488194F8BB32022B00F0378194F8F9
:104C2800FB32022B00F0108194F83B33022B00F08A
:104C3800FF8094F87B33022B00F0EE8094F8BB33AE
:104C4800022B00F0D58094F8FB33022B00F0BF80D4
:104C58003EB9874B1B7823B94FF40032854BC3F814
:104C680090204FF440727E4B01219B6C01A8C3F346
:104C78000A030293ADF8042000F080FBE9064FF424
:104C880000367D4C07D5FFF735FF264603E0E906D9
:104C98004FF01004F7D4EA0332D5734C46F480364B
:104CA800A37E9BB10221754B6D4A1966536E9B0713
:104CB800FCD54FF4405200216B4800F0EBFA6A48EB
:104CC80000F0E2FA02226B4B5A661A66012394F846
:104CD8003A20E370FAB901234FF4C061684A84F8B6
:104CE8002330ADF8041092E8030004AA02E9030097
:104CF800194601A800F042FB4FF400325D4B1A65DB
:104D0800E9041DD46A0432D42B043FD4AE4240F0E7
:104D18009A8104B070BD594A1366A2F50052536EC9
:104D2800D807FCD54FF440520021564800F0B2FA9B
:104D3800544800F0A9FA01224E4B5A661A66CAE78F
:104D48000024474B46F480561C60FFF7A1FE4FF441
:104D58008073012101A8ADF804308DF8084000F0F7
:104D68000DFB4FF40022434B1A656A04CCD54FF46F
:104D78008063012101A8ADF8043000F0FFFA102289
:104D88003C4B46F480461A652B04BFD54FF4A0630C
:104D9800012101A8ADF8043000F0F0FA4FF40062E8
:104DA800344B46F400461A65B0E794F83A60002E92
:104DB8003FF403AF94F83C30002B3FF4FEAE0023E1
:104DC80004F1200084F83C3000F086FAF5E694F807
:104DD800FA33002B3FF43CAF94F8FC33002B3FF43C
:104DE80040AF0023284884F8FC3300F075FA38E710
:104DF80094F8BA33002B3FF426AF94F8BC33002B59
:104E080040F0B28094F8FB33022B7FF42AAF94F879
:104E1800FA33002BE0D124E794F87A33002B3FF4DF
:104E28000DAF94F87C23002A40F005811E4605E763
:104E380094F83A33002B3FF4FCAE94F83C23002A54
:104E480040F0F1801E46F4E694F8FA32002B3FF465
:104E5800EBAE94F8FC22002A40F0DD801E46E3E623
:104E68000000115000000B40C81B0020C01B002090
:104E78008122002000301150100002000020115043
:104E880000001050E81B0020A81F002094F8BA3238
:104E9800002B3FF4C4AE94F8BC22002A40F0B38043
:104EA8001E46BCE694F87A32002B3FF4B3AE94F871
:104EB8007C22002A40F09F801E46ABE694F83A32E6
:104EC800002B3FF4A2AE94F83C22002A40F08B80DD
:104ED8001E469AE694F8FA31002B3FF491AE94F806
:104EE800FC21002A77D11E468AE694F8BA31002BB5
:104EF8003FF481AE94F8BC21002A64D11E467AE6BC
:104F080094F87A31002B3FF471AE94F87C21002A92
:104F180051D11E466AE694F83A31002B3FF461AE4F
:104F280094F83C21002A3ED11E465AE694F8FA30FD
:104F3800002B3FF451AE94F8FC2062BB1E464BE6B2
:104F480094F8BA30002B3FF442AE94F8BC20D2B9A2
:104F58001E463CE694F87A30002B3FF433AE94F8C2
:104F68007C2042B91E462DE60023394884F8BC331C
:104F780000F0B2F946E70022364884F87C201E4645
:104F880000F0AAF91EE60022334884F8BC201E4629
:104F980000F0A2F91BE60022304884F8FC201E46E7
:104FA80000F09AF918E600222D4884F83C211E46A4
:104FB80000F092F915E600222A4884F87C211E4662
:104FC80000F08AF912E60022274884F8BC211E4620
:104FD80000F082F90FE60022244884F8FC211E46DE
:104FE80000F07AF90CE60022214884F83C221E469B
:104FF80000F072F909E600221E4884F87C221E4659
:1050080000F06AF906E600221B4884F8BC221E4616
:1050180000F062F903E60022184884F8FC221E46D4
:1050280000F05AF900E60022154884F83C231E4691
:1050380000F052F9FDE50022124884F87C231E4650
:1050480000F04AF9FAE5104886EA050100F044FC48
:10505800681F0020281C0020681C0020A81C0020B5
:10506800E81C0020281D0020681D0020A81D002025
:10507800E81D0020281E0020681E0020A81E002011
:10508800E81E0020281F0020A4480010828A2DE96D
:10509800F043048BC378944228BF1446121B92B283
:1050A8008282002B46D044F4105683F00103C3706B
:1050B80043783546B3BBC56804F1FF3905EB811861
:1050C80005695CB36A1CA8EB0207022F35D9B9F150
:1050D800070F32D9AE46C446221F920801325EF845
:1050E800047B01339A424CF8047BF8D8B4EB820F66
:1050F800A9EB820305EB820C08EB82070CD015F8AC
:10510800225008F822503BB19CF80120012B7A70FC
:1051180002D09CF80230BB700569828A2C44046175
:1051280046F400450AB945F4804501B12D042846E6
:10513800BDE8F08344F48066B7E708F1FF382544FA
:1051480000E0013212F8013CAA4208F8013FF8D108
:10515800E2E700BF83681B6801B11B0C4278C3F308
:105168000903002A3FD0F0B5D0E903248D015F1E62
:1051780002EB81115BB301352A44A21A022A3CD9F9
:10518800072F3AD90D46A6460022A3F1040C4FEA90
:105198009C0C0CF1010C55F8046B013294454EF847
:1051A800046BF8D8B3EB8C0FA7EB8C0701EB8C05DD
:1051B80004EB8C020AD011F82C1004F82C102FB133
:1051C8006978012F517001D0A97891700469C28A59
:1051D8001C441A44C282028B04619A4284BF002292
:1051E80082821846F0BDC28A1A44C282028B9A4251
:1051F80084BF0022828218467047013CCD1811F8FE
:10520800012BA94204F8012FF9D1DFE710B50446B4
:10521800836800211B68FFF79DFF63681B685B00BC
:1052280002D5238B834200D010BD2046BDE8104034
:105238000121FFF78FBF00BF084B1B6C13F002035F
:1052480002D18278D20901D100207047C07EA0F136
:105258000200B0FA80F04009704700BF000011500A
:1052680008B5FFF7E9FF50B1054A064B906A1B687D
:10527800A0F54870C01AC6288CBF0020012008BDC0
:1052880000000B40C01B00200023C0E904338376D4
:10529800704700BF10B5836809B11C68214082B10E
:1052A800114352050DD51A6854050CD4084A21F447
:1052B80080641C60126C920703D40C23033BFDD25C
:1052C8008368196010BD8178024800F005FB00BFB3
:1052D80000001150B848001030B54368002183B071
:1052E80004461D68FFF7D2FE134B40F480521B6C36
:1052F80013F0020FA3780ED05B060ED025F0A04560
:1053080045F000550021204663681D6003B0BDE8E4
:105318003040FFF7BFBFDB09F0D0A38A002BEDD0E8
:10532800012120460192FFF7B1FE019A25F00055B0
:1053380045F0A0450243E5E70000115038B5857EE9
:105348000446A5B1FFF762FFA38A0BB9284638BD0A
:105358002046FFF785FF054620B101230025237766
:10536800284638BD2046FFF7B7FF284638BD817864
:10537800014800F0B1FA00BFD84800102DE9F04309
:1053880043780446023B0E4685B0042B15D8DFE867
:1053980013F005004A00A400AD0044000021764B3C
:1053A8001A786FF300021A701A786FF341021A70B4
:1053B80059701A7861F382021A70704B1D686B6914
:1053C800EFF3108272B6D3E8CF0F01210028FAD18B
:1053D800C3E8401F0028F6D1BFF35F8FAA612146BA
:1053E800284600F071FA00236A69C2E88F3FAB696A
:1053F80083F3108848B94FF0E023D3F8F03DDB077A
:1054080008D500BE05B0BDE8F08332466178207843
:1054180000F04EFA05B0BDE8F083594A137801331D
:10542800DBB21370C9E70025564F2B463978DFF8F1
:105438005881DFF8589108E0D9F8002012EB43139F
:1054480008D10135EBB28B420FD88B42F4D35B1AEB
:1054580008EB4313DB69002BF3D061682078984789
:1054680001353978EBB28B42EFD9434D2B78580789
:1054780045D4EB78DA07CDD5002703233F492278B6
:105488000D6861680397CDE901718DF804208DF8E6
:1054980005306B69EFF3108272B6D3E8CF0F0121A4
:1054A8000028FAD1C3E8401F0028F6D1BFF35F8F68
:1054B800284601A9AA6100F007FA6B69C3E88F7F43
:1054C800AB6983F31088002895D032469DF8051003
:1054D8009DF8040000F0ECF99CE7274B1A78D707F1
:1054E80098D51A7842F004021A7066E7224B1A78A7
:1054F800D5078FD51A786FF382021A705DE74FF0DF
:10550800000805222B781D496FF382032B7023783E
:105518000F68CDF804808DF805208DF80430CDE9AA
:1055280002887B69EFF3108272B6D3E8CF0F0121AE
:105538000028FAD1C3E8401F0028F6D1BFF35F8FD7
:105548003846BA6101A900F0BFF97B69C3E88F8FBB
:10555800BB6983F3108838B94FF0E023D3F8F03DE6
:10556800D90786D500BE84E732469DF805109DF818
:10557800040000F09DF97CE770180020C81800208E
:10558800822200208022002000490010E41300201D
:1055980053B94AB9002908BF00281CBF4FF0FF3192
:1055A8004FF0FF3000F082B9ADF1080C6DE904CE80
:1055B80000F006F8DDF804E0DDE9022304B07047E6
:1055C8002DE9F04F099D04460F46002B48D18A4229
:1055D800944661D9B2FA82F343B1C3F120019F40E6
:1055E80002FA03FC9C4020FA01F10F434FEA1C41E8
:1055F8001FFA8CFE220CB7FBF1F601FB167706FBAF
:105608000EF042EA0742904208D91CEB020206F16A
:10561800FF3702D2904200F237813E46121AA4B2F6
:10562800B2FBF1F001FB102200FB0EFE44EA02443B
:10563800A64508D91CEB040400F1FF3202D2A645A6
:1056480000F21C81104640EA0640A4EB0E04002636
:105658001DB1DC400023C5E900433146BDE8F08FA9
:105668008B4209D9002D00F0FD800026C5E9000114
:1056780030463146BDE8F08FB3FA83F6002E4BD1A1
:105688008B42C0F0F280824240F2EF803046002D1B
:10569800E3D0C5E90047E0E702B9FFDEB2FA82F3DA
:1056A800002B40F09D80891A4FEA124E97B20126CE
:1056B800200CB1FBFEF20EFB121140EA014107FB80
:1056C80002F088420FD91CEB010102F1FF382CBF10
:1056D8004FF001094FF00009884203D9B9F1000FD2
:1056E80000F0CF804246091AA4B2B1FBFEF00EFBCF
:1056F800101100FB07F744EA0144A74208D91CEB44
:10570800040400F1FF3102D2A74200F2B480084637
:10571800E41B40EA02409BE7C6F12007B34001FAC8
:1057280006F422FA07FCF940B2404CEA030C20FACE
:1057380007F34FEA1C491C431FFA8CFE00FA06F3D4
:10574800200CB1FBF9F809FB181140EA014108FBEC
:105758000EF088420FD91CEB010108F1FF3A2CBF6B
:105768004FF0010B4FF0000B884203D9BBF1000F3B
:1057780000F08D80D046091AA4B2B1FBF9F009FBFC
:10578800101100FB0EFE44EA01418E4507D91CEBBF
:10579800010100F1FF3401D28E457FD8204640EA4E
:1057A8000840A1EB0E01A0FB029841454C46C646B5
:1057B80002D306D14B4504D20138B9EB020468EB99
:1057C8000C0E002D70D01A1B61EB0E0122FA06F3A5
:1057D80001FA07F7F14000261F43C5E900713CE7CD
:1057E80002FA03FCC3F1200001FA03F221FA00F6E1
:1057F8004FEA1C4E24FA00F11FFA8CF79C40114323
:10580800B6FBFEF00A0C0EFB106642EA064200FBED
:1058180007F696420ED91CEB020200F1FF382CBFA6
:105828004FF001094FF00009964202D9B9F1000F73
:1058380031D04046921B89B2B2FBFEF60EFB16220F
:1058480041EA024106FB07F28A4207D91CEB010133
:1058580006F1FF3801D28A4223D84646891A46EA19
:10586800004625E72E462846F7E6841A61EB03032F
:1058780001201F460BE76444023849E764440238B4
:10588800E1E6023A61442EE7023E6244C6E6A8F128
:10589800020861446FE702386244CBE7023861448A
:1058A8007DE7023E6144D9E72E46D6E6704700BF41
:1058B8005FF800F0B12B00105FF800F0D51C001065
:1058C8005FF800F0E51D00105FF800F031410010AE
:1058D8005FF800F0B54400105FF800F0E510001024
:1058E800FF0000006666664010000000000000002F
:1058F800000001000000000000000000000002009D
:10590800000000000000000000000300000000008C
:10591800000000000000FF000000000001B548681A
:1059280001318E460047704609380149884701BD54
:105938002115001000000000000000000000000019
:10594800000000000000000040110020CC180020DA
:1059580010000C0000000000000000000000000023
:105968000000000000000000FF0000000000000030
:0C59780000000000000000000000000023
:10598400D3DEFFFFFE010000FF010000B4A7FFFF0C
:04599400793512ABA4
:040000051000014D99
:00000001FF
