:020000041000EA
:10000000002008205D0100101301001015010010F0
:100010001101001011010010110100101101001058
:100020001101001011010010110100101701001042
:100030001101001011010010190100101B01001026
:100040001D0100101D0100101D0100101D010010F8
:100050001D0100101D0100101D0100101D010010E8
:100060001D0100101D0100101D0100101D010010D8
:100070001D0100101D0100101D0100101D010010C8
:100080001D0100101D0100101D0100101D010010B8
:100090001D0100101D0100101D0100101D010010A8
:1000A0001D0100101D0100101D0100101D01001098
:1000B0001D0100101D0100101D0100101D01001088
:1000C0001D0100101D0100101D0100101D01001078
:1000D0001D0100101D0100101D0100101D01001068
:1000E0001D0100101D0100101D0100101D01001058
:1000F0001D0100101D0100101D0100101D01001048
:100100001D0100101D0100101D0100101D01001037
:1001100000BE00BE00BE00BE00BE00BEEFF3058004
:10012000103800BEF2EB8871E8D2001008D300103E
:10013000A801001090A31AE7D3DEFFFF42012110AF
:10014000FF01000028EF0000793512AB4FF00000EE
:100150002049086006C881F3088810474FF05040D6
:10016000006810B14FF00000F2E70FA40ECC002998
:1001700002D000F015F8F9E71749184A002000E00E
:1001800001C19142FCD1002080F30A8814498847BC
:10019000144988471449884700BEFDE701C901C2D8
:1001A0009A42FBD3704700BF08D300101001002013
:1001B000681E002060F000100000082000000820E9
:1001C00060F000100010082000100820000000005F
:1001D0007047000008ED00E0681E0020B02E0020EF
:1001E000293F001095020010ED3E0010F8B500BF49
:1001F0000348044B834202D0034B03B118477047B6
:10020000681E0020681E002000000000064B074901
:10021000C91A891048BF0131491003D0044B0BB1F2
:1002200001481847704700BF681E0020681E002064
:100230000000000010B5064C237843B9FFF7D8FF43
:10024000044B13B10448AFF300800123237010BDA9
:10025000E81F002000000000B0C7001008B5044BE4
:100260001BB104490448AFF30080BDE80840CDE766
:1002700000000000EC1F0020B0C70010704700BF56
:1002800018B90A68B2F5966F00D07047014608B5F4
:1002900001F0FEFB2DE9F04F2DED108B4FF4613195
:1002A000ADF5017D284801F025FA0221002000F07B
:1002B000A1FB0221012000F09DFB01220023082167
:1002C000214801F099FA01211F4801F0CBFA05F00D
:1002D00001FE0123002030A9ADF8C0300F9004F0DA
:1002E0008BF947221949002005F0AAF8002005F0F3
:1002F0005DF801F0CFF99FED16EA9FED168A0546ED
:100300008846154FDFF85CA0DFF85CB04FF0FF3097
:10031000002104F0F7F9002004F0F4FF002800F0B9
:10032000B1804022002020A904F0F8FF002800F04E
:10033000A98020AB1E18DFED098A9FED099A1C46A3
:10034000B1463A681DE000BF00000740B0C700108A
:100350000000C842000000000021002000001644F8
:100360000000B44380200020181400200A2B0CD079
:100370007E2A03DC0AF8023001323A60A14500F01F
:10038000818014F8013B0D2BF0D1002AF6DD002608
:10039000D24930460AF8026005F052F80222D049EC
:1003A000304605F04DF8304605F000F8CD49CB4811
:1003B00014AB13AA8DED138A8DED148A06F06AFB37
:1003C000022840F0B381DDED137AB6EE007AF4EE48
:1003D000C77AF1EE10FAC0F2D9819FEDC36AF4EE4C
:1003E000C67AF1EE10FA00F2D181DDED146AF4EE76
:1003F000C76AF1EE10FAC0F2C981F4EEC66AF1EEF6
:1004000010FA00F2C3819FEDB97AB94BB94A93ED66
:10041000005AC2ED007A77EEC77AB74EB74AD6EDEA
:10042000005AF4EEC57AC2ED006A76EEC76AF1EEC4
:1004300010FAF4EEE56A58BFF0EE457AF1EE10FAE4
:10044000F4EE477A58BFF0EE656AF1EE10FAF4EE7A
:10045000476A48BFF0EE477AF1EE10FA48BFF0EE77
:10046000476A12220020A649C3ED007AC6ED006A51
:1004700004F0E6FF002004F099FF0022A1453A6055
:100480007FF47FAF012004F03DFF002840F087811A
:100490009BED007ADFED9B6AC6EE877AFCEEE77A89
:1004A00017EE904A01F0F6F88946411B69EB080205
:1004B000A14272F100030646FFF428AFDBED007A9B
:1004C000B2EE047AFA2267EE877A894BFCEEE77A7D
:1004D00093ED00BA884B8DF85420D3ED00AA8A4BD7
:1004E00040F2671293ED00AA824B15AC93ED00DA4F
:1004F000824B40F26110D3ED00CA0F9B254603EBFF
:100500004308A3F160018DF855104146A2EB48085D
:1005100017EE902AA0EB41031094DFED7C9A44463D
:100520009FED7B9AA846DFED7BFADFED7BDA9FED4E
:100530007BFADFED7B8AB1EE4BCAF1EE6ABA1D465B
:1005400091B28DF85610090A8DF85710119607EEE2
:10055000904AF8EEE77A77EE8A7A67EEA97AC7EEE4
:10056000897A17EE900A17EE906A02F0B8F8014601
:100570000EEE901A304602F0AFF8F4EEEFEAF1EE2C
:1005800010FA07EE100A0DDD7DEE4B6AC6EEAE7A6C
:10059000F5EEC07AF1EE10FA04DDF4EEED7AF1EE4C
:1005A00010FA01D4DFED5C7AF4EECFEAF1EE10FA46
:1005B0000DD5CCEE2E6AF5EEC06AF1EE10FA06DD2E
:1005C000F4EE676AF1EE10FA48BFF0EE667AB4EE28
:1005D000EF7AF1EE10FA0FDD3CEEEA6AC6EE076A3A
:1005E000F5EEC06AF1EE10FA06DDF4EE676AF1EEA0
:1005F00010FA48BFF0EE667AB4EECF7AF1EE10FA58
:100600000DD5CBEE876AF5EEC06AF1EE10FA06DD85
:10061000F4EE676AF1EE10FA48BFF0EE667A6FF01A
:10062000430367EEA87A88F80430FCEEE77A4FF0CF
:10063000020340F6AC5288F8053017EE903A934228
:1006400028BF1346782B38BF78230021013C88F857
:100650000630A542C3F3072308F1060888F8021004
:1006600088F8031088F801307FF471AFDDE9104697
:100670000A461FA82378023403EB420214F8013C17
:10068000A04202EB0322F5D102EBD232C2F30E02FA
:100690008DF87C200120120A8DF87D2004F01CFECC
:1006A000002840F0D9801F4915A88B699B06FCD40F
:1006B00010F8013B0B600DF17E039842F5D10F9AC3
:1006C000194B0132A3FB02135B09C3EB0313A2EB2B
:1006D00083033546C8460F9318E600BF80200020EC
:1006E00014C80010F8C7001000004843CDCC4C3DA2
:1006F0002414002020140020281400201C140020A2
:1007000004C80010002474497C200020DB0F4940FD
:10071000000034435F708930286B6E4E5F7089B083
:1007200000007A440000074089888888814982480F
:1007300014AB13AA06F0AEF9022836D1DDED137A18
:10074000F5EEC07AF1EE10FA17DB7C4B93ED007AF0
:10075000F4EEC77AF1EE10FA0FD89DED147AB5EEEB
:10076000C07AF1EE10FA08DB754BD3ED006AB4EEF7
:10077000E67AF1EE10FA40F2C2802322714900209D
:1007800004F05EFE002004F011FE76E62A226E4997
:10079000002004F055FE002004F008FE6DE6402223
:1007A00030A9012004F0BAFD72E66849624813AA34
:1007B00006F070F901281FD065495F4813AA06F0BA
:1007C00069F9012833D0DAF80030624A93424CD0FC
:1007D000DAF80030604A934200F087809AF80030DF
:1007E000002B3FF44AAE23225C49002004F028FE8F
:1007F000002004F0DBFD40E65949139801F052FD5A
:1008000007EE900AF5EEC07AF1EE10FA48BF77EEE7
:10081000897A544B152254490020CDED137AC3ED4B
:10082000007A04F00DFE002004F0C0FD25E6DDEDA9
:10083000137AF4EECE7AF1EE10FA04DBF4EEE87AF5
:10084000F1EE10FA6AD91C224849002004F0F8FDA4
:10085000002004F0ABFD10E62A2215A9012004F0C7
:10086000EFFD012004F0A2FD1DE745F25533BAF873
:1008700004209A42ACD14FF46133DBF800000D93B1
:100880000C960BF059FFCDE90A01364B18680BF0B6
:1008900053FFCDE90801364B18680BF04DFFCDE949
:1008A0000601344B18680BF047FFCDE90401244BD7
:1008B00018680BF041FFCDE90201204B18680BF0DE
:1008C0003BFF2D4ACDE900014FF4A07130A803F0A1
:1008D0007DFA30A806F080F930A90246304604F0CF
:1008E000AFFD304604F062FDC7E54FF4A172234925
:1008F000002004F0A5FD002004F058FDBDE51D4BCF
:100900001622C3ED007A1A4B30461D4983ED007A5A
:1009100004F096FD304604F049FDAEE51122304664
:100920001849CBED007A04F08BFD304604F03EFD13
:10093000A3E500BF44C80010802000202014002040
:100940001C14002068C8001018C800108CC80010C3
:10095000B0C800105354415448454C50E4CA0010EC
:100960000000B4437C20002098C80010CCC80010C0
:100970002814002024140020F4C80010A0C900107E
:1009800050C80010B8C800100048704768CB00106D
:100990000048704794CB001010B5D8B105281FD877
:1009A000114B53F820409CB11F21204606F042F91C
:1009B000431C0E4A5B0043F44073138038B1631E3E
:1009C000184413F8011F834222F8021FF9D1074C83
:1009D000204610BD054B064A1C461A60204610BD35
:1009E0000024204610BD00BF7CCB00103C2000201E
:1009F0000403090410B44FF480740C4B53F8202006
:100A000003EB8003C00082F0400200F1804003F558
:100A1000805C02F0C00200F5203003F54053CCF8B2
:100A2000002041601C605DF8044B70470480034067
:100A300030B4002343EC440043EC400005254FF460
:100A400080740B4BC20053F8201003EB800081F040
:100A5000400102F1804303F5203301F0C00200F5AC
:100A6000805100F540500A605D60046030BC704702
:100A7000048003400FB400B583B0049C074803F022
:100A8000AFFB3CB105A92046019103F0D9F9044818
:100A900003F0A6FB012003F0EBF900BF24CC00100B
:100AA000C8C8001070B5EFF3108572B6134CD4E8C7
:100AB000CFCF0126BCF1000FF9D1C4E84C6FBCF1D7
:100AC000000FF4D1BFF35F8F4FF0010C4FEAD10E4E
:100AD00001F007030CFA03F310F80EC01CEA03063A
:100AE00008D14CEA030300F80E30C4E88F6F85F399
:100AF000108870BD1046FFF7BDFF00BFFB28002027
:100B0000F8B5EFF3108572B6234CD4E8CF7F0126F9
:100B1000002FFAD1C4E8476F002FF6D1BFF35F8FE3
:100B20009A4227D80126D70810F807E002F0070CF0
:100B300006FA0CFC1EEA0C0F00EBD2070DD125E0E3
:100B40004FEAD20E10F80EE002F0070C06FA0CFC89
:100B50001EEA0C0F00EBD20718D001329342EFD2FD
:100B60004FF0FF300023C4E88F3F85F31088984290
:100B700007DBF8BD0023C4E88F3F85F310884FF0F2
:100B8000FF300029F5D00698FFF774FF4EEA0C0CF1
:100B9000104687F800C0E5E7FB280020044A1078DB
:100BA000431CDBB2172B88BF10231370704700BFA4
:100BB0002C14002010B5054C82B001461F231822CA
:100BC00000940348FFF79CFF02B010BD34CC001026
:100BD000342A00204FF0E022936843F000539360E2
:100BE000704700BF0021044B03F12002C3E88F1FB0
:100BF00001339342FAD17047F02800204FF0E023F0
:100C00004FF08032C3F80024C3F80424C3F808244A
:100C1000C3F80C24C3F81024C3F81424C3F8182410
:100C2000C3F81C24C3F82024C3F82424C3F82824C0
:100C3000C3F82C24C3F83024704700BF012300F010
:100C40001F029340400941B1800000F1604000F56F
:100C50006140C0F8803103607047024A203042F89A
:100C60002030704700E100E0F8B50D46EFF3108743
:100C700072B6124ED6E8CF2F0123002AFAD1C6E869
:100C8000423F002AF6D1BFF35F8F0D4B00F11004F5
:100C90009B680C4A53F82430934203D0994201D008
:100CA00000F036FF064B9B6843F82450BFF35F8F7C
:100CB0000023C6E88F3F87F31088F8BDF92800208D
:100CC00000ED00E01D0100102DE9F04F80468B463D
:100CD000174683B0EFF3108372B6DFF8D0A100930C
:100CE000DAE8CF1F01230029FAD1CAE8413F0029E1
:100CF000F6D1BFF35F8F664E96F90050002DC0F21B
:100D0000A080644C05EB450304EB8300817908F176
:100D10001008317060499B008968994651F828E0B5
:100D20000646AEEB04012F294FEA450231D95B4B51
:100D30009E4540F0A2805A4B09F10209A144043BB0
:100D4000A3EB0903C3F34A036FEAC3434FF4214102
:100D50006FEAD343154424F8251004EB85056B8016
:100D60004BF60153AB80FF2346F0010EEF71C5F83F
:100D700008B0AB71484B9B6843F828E0BFF35F8F26
:100D80000023CAE88F3F009B83F3108803B0BDE8BF
:100D9000F08F2EF0010191F807C0BC452BD84FF41D
:100DA0002146E6523E4B09F102062644043B09F176
:100DB00004099B1BA1440E1FC771A6EB0906394FFE
:100DC000C6F34A063E438680C3F34A03364E3B438E
:100DD00043804AF6AA250B461B1B5B415D432D0D44
:100DE000C0F808B0857140F0010E0E60C2E7C0790E
:100DF000B8422BD9614691F9063003EB430004EB6E
:100E00008000002B8446F2DA4BF6015001930B1D53
:100E1000043EF61AC6F34A066FEAC6466FEAD6469D
:100E200002EB050CDFF88090019B8D7104EB8C05C3
:100E30008E8044F82C90A880AB71EF71C5F808B093
:100E400098E700F065FE96F900505AE7888801930C
:100E5000400501F1040315D44FEA605C6FF0070010
:100E60000CF1020CA0EB090003EB4C0C001B6044DE
:100E7000C0F34A0040F46040CAE7019200F048FE27
:100E8000019A58E700F5FF1000F5FF501F30E3E727
:100E9000AF2E00203014002000ED00E01D010010F6
:100EA0006014002000E0FFFF01488047F92800207F
:100EB000F0B5EFF30585EDB2EFF3108C72B626496D
:100EC000D1E8CF2F0123002AFAD1C1E8423F002AFE
:100ED000F6D1BFF35F8F214E40F0010EB4684AF6A1
:100EE000AA2354F825701E4A0446A41A6441634399
:100EF0001B0D77455BB21BD092F906409C421CD07B
:100F000092F912409C4223D092F91E409C4221D07B
:100F100092F92A409C4208BF03240FD0114A0024B2
:100F2000157813708571C1E88F4F8CF31088F0BD70
:100F3000B2680D4C42F82540F0E7002404EB44046D
:100F400002EB8402FF2494714BF601549480E5E790
:100F50000124F3E70224F1E7F928002000ED00E086
:100F600030140020AF2E00201D010010014B194449
:100F700001607047F0280020F8B5124D124EB542BE
:100F80001FD22C462368FF277BB1FFF707FE0146DF
:100F90002846FFF7EBFFA780BFF35F8F0834B4420A
:100FA0000FD223682546002BEFD1FFF7F7FD01464E
:100FB0002846FFF7DBFF2771BFF35F8F0834B44289
:100FC000EFD3F8BD601E0020681E002010B5044657
:100FD000FFF7E4FD01462046FFF7C8FFFF2323711A
:100FE000BFF35F8F10BD00BF10B504460120FFF7AF
:100FF000E1FD034B18442060BFF35F8F10BD00BFBD
:10100000F02800200D4B1A68EFF3108172B6D2E879
:10101000CFCF0120BCF1000FF9D1C2E84C0FBCF1D9
:10102000000FF4D1BFF35F8F00221B68C3E88F2F3E
:1010300081F3108840BF002000217047A42E0020BB
:101040002DE9F04F2DED028B85B0EFF30583DBB278
:10105000103B9A0818BF01224FF0010103F0030072
:10106000AD4B00EB82020CBFAC4FAD4F53F822608A
:1010700001FA00F207F541539FEDA58BB0460190B0
:1010800000925A6035E0B8F804301B0440F19280B9
:1010900098F80630002B40F0DF80B8F90820002ACD
:1010A000C0F22581D8F8143002EB420203EBC202F1
:1010B000D2E90245B5F1FF3F08BFB4F1FF3F0DD0C3
:1010C000019B07EB8301BB6A0A69D21AE31A9342B8
:1010D00003D33B6A009A134200D10C61384600F0FA
:1010E000D1FA201A65EB0105012875F1000380F2A1
:1010F000FE80B8F90840009B002CFB63C3DBD8F8E6
:1011000014A004EB440B38460AEBCB05D5E9029654
:1011100000F0B8FA484561EB06010029B3DB002E68
:10112000C0F2C3802B697F4A934200F0FD806A8839
:10113000B8F9080092B242EA00406969984702464D
:101140000B4652EA030100F0B080002B80F2D580FC
:10115000B9EB020066EB0303C5E902033AF93B5021
:10116000002D90DBD8F814C005EB45010CEBC10154
:101170008A68821ACA6863EB0202002A83DBA8F835
:10118000085007E09568451BD56863EB0505002D01
:1011900008DB1146B1F9006006EB4602002E0CEBAD
:1011A000C202EFDA2AF83B600C80B8F804301B0466
:1011B0003FF56EAFD8F81030EFF3108272B6D3E877
:1011C000CF0F01210028FAD1C3E8401F0028F6D133
:1011D000BFF35F8F4FF6FF70B8F804900023D8F884
:1011E00010100FFA89F9A8F80400C1E88F3F82F3C4
:1011F00010889945FFF64CAFBA46D8F8145008F15C
:10120000080B09EB490E05EBCE03D3E90267B8F9E9
:101210000830DC46002B05DA0FE035F9343084461F
:10122000002B0ADB03EB430405EBC400D0E90212F8
:10123000711A67EB0202002AEFDAACF8009035F978
:101240003E9025F83E30B9F1000FDADA98F8063012
:101250005746002B3FF421AF002388F80630B8F939
:10126000083008F1080C5E1C41D01A46D8F814402A
:1012700003E08446591C3FF412AF03EB430104EB37
:10128000C10045881E462D0434F93130F1D596420F
:1012900080ED028BEED0ACF80030B8F8082024F8CE
:1012A00031203246A8F80860E4E73AF83B30A8F865
:1012B0000830D8F81030EFF3108272B6D3E8CF0FB1
:1012C00001210028FAD1C3E8401F0028F6D1BFF35E
:1012D0005F8FB8F80230D8F810102AF83B3000239E
:1012E000A8F80240C1E88F3F82F31088CBE640BFE8
:1012F00005B0BDEC028BBDE8F08F3846CDE9022386
:1013000000F0C0F9029A039B801843EB010323E726
:10131000FFFFFFFFFFFFFFFF7C2E002000000B40C0
:1013200000800B40411000106B6918461A69029347
:1013300090470028B9D0029BD3E9002301E700BF02
:101340002DE9F84F364C25692DB1BDE8F84F0A213B
:101350003448FFF70BBEDFF8E48003260321404644
:1013600000F07EF9C4F80C80FFF718FC4FF0504CE9
:101370002D4B26701844DCF800300F216370636930
:1013800061801D834FF00405A3F878504FF00505E8
:10139000A3F890504FF00605A3F8A8504FF00705AA
:1013A0000E21206108274FF6FF724FF00A0EA3F8B6
:1013B000C0504FF001094FF00C0C4FF0020B4FF0F2
:1013C000090A0D204FF00B05A3F868111749A280F8
:1013D000A3F808E1A160A3F848B0A3F8F0A0A3F82F
:1013E0002051A3F838C1A3F85001A3F83090A3F816
:1013F0006060A3F8D8701A800D4B3046C8F8207092
:101400000C49DC60FFF730FC49463046FFF716FC1C
:10141000094B0A211F600348BDE8F84FFFF7A6BD3E
:1014200078140020A42E0020F0280020FFFF1000D8
:101430007C2E00204110001040200B4000000B408B
:101440000146F0B50069EFF3108772B6D0E8CF5FC0
:101450000124002DFAD1C0E8454F002DF6D1BFF38D
:101460005F8FB1F902E04C690EEB4E0C4FEACC06EF
:10147000BEF1000FA8BFA05B4FF00005A8BF4880D9
:1014800004EBCC0C0869C0E88F5F87F31088AE4589
:1014900035DBBCF80200CCE902230130C0F30E00BA
:1014A000012838BF0120059BACF80200CCF81030B1
:1014B000069B40EA0E40CCF814300B69EFF3108223
:1014C00072B6D3E8CFCF0127BCF1000FF9D1C3E842
:1014D0004C7FBCF1000FF4D1BFF35F8F8B88A35317
:1014E000A1F804E00B69C3E88F5F82F31088012242
:1014F000CB68097803F501538A405A60F0BD4FF07C
:10150000FF30F0BD4289B2EB214F38DD42690B1448
:1015100003EB430310B502EBC3030469EFF3108C34
:1015200072B6D4E8CFEF0122BEF1000FF9D1C4E8C2
:101530004E2FBEF1000FF4D1BFF35F8F5A8889B2EE
:1015400092B28A4207D000230269C2E88F3F8CF32F
:101550001088184610BD42F400425A800123002230
:1015600001698371C1E88F2F8CF31088C2680178FC
:1015700002F5015203FA01F11846516010BD002036
:10158000704700BF2DE9F04307460E4683B0EFF3E6
:101590000584E4B274B12F4B586A884203D200200C
:1015A00003B0BDE8F0839B6ABB4248D3012003B07F
:1015B000BDE8F083284DD5F80C9095F8008048469A
:1015C00000F060F808F1040859F828301B1A381A9E
:1015D00066EB0101984271F100030DDB20BF1D4B4A
:1015E000586A8642DBD89B6ABB42DFD2301A18BFEA
:1015F000012003B0BDE8F08300F04CF8874266EBB1
:101600000101002913DB154B2846CDE900343A4689
:101610003346FFF715FF011E09DD0E4B5A6A96424D
:1016200015D89B6ABB4210D30B48FFF76BFF094BE1
:10163000586A8642B3D89B6ABB42B7D2D6E7401AF3
:1016400018BF012003B0BDE8F0839642ECD120BF63
:10165000EAE700BF00000B407814002005100010DE
:1016600010B4054B054C064AA04214BF1846581C3E
:101670005DF8044BFFF716BA382A002000800B40B3
:1016800058CC0010416A0B46826A416A8B42FAD1FB
:1016900010467047034B596A0A46986A596A914244
:1016A000FAD1704700000B4010B4114A536A9C46AF
:1016B000946A536A6345FAD100194B414FF0000216
:1016C00028BF012212B14FF0FF33184608494A6A79
:1016D0009A42FCD39A4207D1054A02E0516A9942E4
:1016E00002D1916A8142F9D35DF8044B704700BF83
:1016F00000000B40F8B5054606200E4600F048F9FC
:10170000002842D0354A364895420CBF4FF000625F
:101710004FF08062334B344902601A608C6832EAC1
:101720000404FBD12D4B4FF48071EB1AB3FA83F311
:101730002E4A5B0922F81310062000F029F9C00098
:10174000B0FBF6F60136F30920D1402701226A6288
:10175000AB622E6BF30722D42B46002253F82C1FCA
:10176000062003F5805422602E6300F011F9EB6A25
:1017700040F2013283F0700303F07E0323608000A7
:101780000323B0FBF7F02A63AB64F8BD4FF6FE729B
:1017900093421BD923464FF6FF72154FD7E740F20D
:1017A000013205F540531A636B6AAC6A062004EBFC
:1017B000831400F0EDF80F4BA402A3FB0023DB0A17
:1017C0000021B4FBF3F0FFF76FFFC5E7C6F3450652
:1017D0001A4606EB83173346B9E700BF008007407F
:1017E000002002400030024000000240A82E0020ED
:1017F000C0FF3F00757B2B8F013A0539D200F8B549
:10180000054642EA411433B144F00202012B14BFF1
:10181000144644F006042E6BF3070AD42B4653F803
:101820002C1F4C4004F06E0403F580531C602E63A3
:10183000F8BD40F2013205F540531A636B6AAF6A96
:10184000062007EB831700F0A3F8054BBF02A3FBAC
:101850000030C00A0021B7FBF0F0FFF725FFDDE7FD
:10186000757B2B8FF8B5066B00290CBF0025102562
:10187000F30704460AD4234653F82C2F554005F0AD
:10188000100503F580531D602663F8BD40F2013258
:1018900000F540531A63636AA76A062007EB8317B3
:1018A00000F076F8054BBF02A3FB0030C00A002110
:1018B000B7FBF0F0FFF7F8FEDDE700BF757B2B8F7D
:1018C00000EB400C4FEA8C0C0CF1804C0CF5803C8A
:1018D00070B5DCF80440A0F1040EB4F5803F38BFC9
:1018E0004FF480345FFA8EFE38BFCCF80440BEF16E
:1018F000010F29D94FF40066244D0CF540542660A1
:1019000055F82060BEB9DCF800400CF5805684EA3A
:10191000421202F0E002BEF1010F326028D94FF40A
:10192000006145F820304FF480330CF5005211600F
:10193000CCF8043070BD6C69B4FBF6F4013404EBF0
:101940004404033CFDD2DEE70129D3D103250CF585
:1019500040542560DCF80840E407FBD5DCF8004083
:101960000CF5805684EA421202F0E002074D326024
:101970000122DCF800404C4004F00304346002FA19
:1019800001F1DCF808200A42FBD0C8E73C2A00201D
:10199000014B53F8200070473C2A002070B4039C90
:1019A0000568240344EA03431B4C002DB4FBF1F407
:1019B000B2FBF4F21FDB194D194CA8420CBF4FF4D7
:1019C00000454FF48045174E256004F5805425608E
:1019D000B46835EA0404FBD1212500F540540434F1
:1019E0000160826025600268002AFCDA0822C36078
:1019F000226070BC7047046804F03F048C42DAD166
:101A00008468C4F30B049442D5D1C46804F4EE2472
:101A10009C42D0D1EDE700BF001BB700008005401D
:101A20000020024000000240012300EB4000800043
:101A300000F1804000F5841041600360704700BFF2
:101A400010B5002482B00B46E48A002141E800F181
:101A5000CDE900034B0254BF1021042144F252206F
:101A6000A047DDE9002386460A214FF48170F44641
:101A700002B0BDE8104060470023DB8A002242E844
:101A800000F2520201D4102118470421184700BF68
:101A900008B5034608462BB193FAA3F3B3FA83F3D0
:101AA00041F020001946FFF7CBFF00BF034AD2F8F0
:101AB0002838002BFBD0BFF35F8F704700000E402B
:101AC0000021044B044ABFF35F8F43F8041B934289
:101AD000F9D170470C080E402C080E4010B44FF49A
:101AE0008D704FF42A64064A064B07491460D06093
:101AF00019605368002BFCDA5DF8044B704700BF97
:101B00000080044000A0044000B0FA00704700BF0D
:101B100008B50148FEF7AEFF7CCC001038B5054C87
:101B2000054DAC4204D254F8043B9847AC42FAD37A
:101B300038BD00BF68C70010A8C7001010B4074820
:101B4000074C084B084A094904601A608B6832EA5E
:101B50000303FBD15DF8044B704700BF0020024037
:101B60007F3BEFEF00300240F6FFF303000002403E
:101B7000044BDB6CB3F5004F03D14FF48022024BD2
:101B8000DA64704700001150002011504FF0E0223D
:101B9000044BD2F8881D0B43C2F8883D10EE300488
:101BA000704700BF030330006FF06041044B054AEB
:101BB00019609368DB4333F06043FAD1704700BF8C
:101BC000003002400000024010B545F25320FFF7FC
:101BD00053FFBDE8104003460420184710B545F2F6
:101BE0005320FFF749FFBDE8104003460120184786
:101BF000FEF7F8BF10B5054B054C4FF48872184638
:101C0000A16804F075FCA06010BD00BF00000020BA
:101C100000ED00E00023F0B52B4C83B0C4F8843015
:101C2000FFF75CFF0122294BDA63636C012BFCD1C7
:101C30000321264A244B11639D6B012DFCD1052302
:101C400002271E4600242946214A22480097FFF712
:101C5000A5FE29463346204A20480096FFF79EFEFF
:101C60003946224604201E4BFFF72AFE294622460B
:101C700030461C4BFFF724FE2246082021461A4B13
:101C8000FFF71EFE224609202146174BFFF718FEDC
:101C9000224606202146134BFFF712FE114B224627
:101CA00007202146FFF70CFE0420FFF771FE0F4DC1
:101CB000A5FB0035AD0CE0B229460134FFF7B4FEB8
:101CC000062CF8D103B0F0BD000001400030014007
:101CD000002F685900000540008C864700800540B1
:101CE000001BB70080D1F008006CDC0283DE1B43D0
:101CF00086B003B451FC0804CDE9020151FC09048B
:101D0000CDE9040151EC0A04CDE9060103BCF0471A
:101D1000BDE800504EEC00C4BDE800504EEC01C4DC
:101D2000BDE800504EEC02C400BD000000B5FFF756
:101D3000DFFF02E010FE30F4F8D441EC100443EC75
:101D4000112400EE010410EE010480EE200451EC99
:101D50001004704700B5FFF7CBFF02E010FE30F42F
:101D6000F8D441EC100443EC112400EE010410EE11
:101D7000210480EE200451EC3004704700B5FFF7D9
:101D8000B7FF02E010FE30F4F8D410B541EC1004B7
:101D900043EC112451EC040453EC0524A0FB024C49
:101DA0005FF0000EE0FB03CEE1FB02CE4CEC2044E2
:101DB0000024E1FB03E444EC30E480EE200451EC29
:101DC0005004BDE81040704700B5FFF791FF02E0F6
:101DD00010FE30F4F8D441EC100443EC112451EC23
:101DE0002104A0FB01126FEA820252FB100052FB99
:101DF00012F252FB1000A0EBD07C53EC04245CFBED
:101E000013F153EC1524A1FB022001FB030053EC5A
:101E10004424A2EB000050FB1CF24FEA111312EB1A
:101E2000017043EBE27140EA515020EA915020F0FA
:101E3000070053EC7524A0FB023C53EC752400FB17
:101E400003CC01FB02CC53EC0424ACEB824C40EA03
:101E50005C70A0F1010041EC400480EE200451ECE4
:101E60007004704700B5FFF743FF02E010FE30F446
:101E7000F8D441EC100480EE220410EEB204704756
:101E800000B5FFF735FF02E010FE30F4F8D440EC67
:101E9000700400EE010410EE210480EE200451ECE9
:101EA0003004704700B5FFF723FF02E010FE30F466
:101EB000F8D440EC600400EE010410EE210480EE42
:101EC000200451EC3004704700B5FFF711FF02E029
:101ED00010FE30F4F8D441EC800400EE010410EE62
:101EE000010480EE400410EE1304704700B5FFF7C4
:101EF000FFFE02E010FE30F4F8D441EC800400EE66
:101F0000010410EE010480EE400410EE330470472B
:101F100000B5FFF7EDFE02E010FE30F4F8D441EC1E
:101F2000100443EC112400EE010410EE3004C0F361
:101F30000070704700B5FFF7DBFE02E010FE30F4E2
:101F4000F8D441EC100443EC112400EE010410EE2F
:101F50003004C0F38070704700B5FFF7C9FE02E09F
:101F600010FE30F4F8D443EC102441EC110400EEE0
:101F7000010410EE30F48CBF01200020704700BF38
:101F800000B5FFF7B5FE02E010FE30F4F8D443ECE4
:101F9000102441EC110400EE010410EE30F42CBFCB
:101FA00001200020704700BF00B5FFF7A1FE02E04E
:101FB00010FE30F4F8D441EC100443EC112400EE90
:101FC000010410EE30F42CBF01200020704700BF48
:101FD00000B5FFF78DFE02E010FE30F4F8D441ECBE
:101FE000100443EC112400EE010410EE30F48CBF19
:101FF00001200020704700BF0022002950DA404233
:1020000061EB4101C9B1B1FA81F30B3B17D4D3F1B4
:10201000200C30FA0CFC9840994051EA0C011A440B
:10202000524202F2324201EB025141F0004140F2D1
:10203000FE739A4238BF704721E011467EE003F1FB
:10204000210310FA03FCA3F1010301FA03FCC3F11D
:10205000200320FA03F021FA03F140EA0C00A3EB7D
:10206000020202F2324214D050F1000041EB025160
:1020700041F0004140F2FE739A4238BF70474FF082
:102080000001A8BFC7F6F0714FF0000070470021B3
:102090007047EBD350F1000020F00100E6E700228A
:1020A000B9B1B1FA81F30B3B16D4D3F1200C30FA5D
:1020B0000CFC9840994051EA0C011A44524202F239
:1020C000324201EB025140F2FE739A4238BF704730
:1020D00020E0114600F066B803F1210310FA03FC7A
:1020E000A3F1010301FA03FCC3F1200320FA03F07A
:1020F00021FA03F140EA0C00A3EB020202F23242A1
:1021000012D050F1000041EB025140F2FE739A42AE
:1021100038BF70474FF00001A8BFC7F6F0714FF00D
:102120000000704700217047EDD350F1000020F00F
:102130000100E8E7002880F235804042B0FA80F3E1
:102140000B3B11D4984001EB0302524202F21242BF
:1021500000EB025141F000414FF0000040F2FE73ED
:102160009A4238BF704713E0C3F1000330FA03FC12
:10217000C3F120029040A3EB010202F212420CEBE9
:10218000025141F0004140F2FE739A4238BF70475D
:102190004FF00041A8BFCFF6F0714FF0000070473C
:1021A0000021704760B3B0FA80F30B3B0FD4984026
:1021B00001EB0302524202F2124200EB02514FF0D5
:1021C000000040F2FE739A4238BF704710E05B4255
:1021D00030FA03FCC3F120029040A3EB010202F2AB
:1021E00012420CEB025140F2FE739A4238BF704724
:1021F0004FF00001A8BFC7F6F0714FF00000704724
:10220000002170470022A2F232425FEA215CACF169
:102210000103A1EB03515B0513F5800F32D212EBE2
:10222000535210D40B2A36DA9140D2F1200330FAFF
:1022300003F319439040BCF1000FA8BF7047404220
:1022400061EB4101704720320EDD01FA02F3D2F159
:102250002002D140D0401843BCF1000FA8BF704706
:10226000404261EB41017047524282F3050231FA6C
:1022700002F00021BCF1000FA8BF7047404261EBA3
:102280004101704702D000200021704750EA01311F
:1022900018BF4FF0000C6FF0004101EBDC716FEAEA
:1022A000EC707047C0F3C752FF2A70B5C1F3C75432
:1022B00048D0002C46D0C50F4AB9DFED287A9FEDF3
:1022C000287A002D47FE877A17EE900A70BDA24249
:1022D000FCDBA2EB040CC0F31600C1F31601BCF149
:1022E000000F40F4000041F4000133DD4FF0FF36F1
:1022F000CB11B6FBF3F6BCF10C0FE646A8BF4FF0CE
:102300000C0E431206FB03F300FA0EF2CEF11D0091
:1023100043FA00F0ACEB0E0C01304010BCF1000FA2
:1023200001FB1020E7DC81420FDD002802DA4018B3
:1023300048BF401805B14042C4F19601BDE8704065
:1023400000F058B84FF0FF4070BD401A8142F1DCF8
:10235000401AEFE78842FBDAECE700BF000000001C
:10236000000000800022002980F2A980404261EB39
:102370004101B1B3B1FA81F3083B16D4994010FA88
:1023800003FCC3F1200320FA03F040EA0100A2EBB2
:102390000302C2F195021CEB0C0C40EBC25040F062
:1023A000004020D0FE2A16D2704703F1210311FA13
:1023B00003FC5CEA000CC3F1210321FA03F0A3EB58
:1023C000020202F1B50240EBC25040F000400AD0D8
:1023D000FE2A38BF70474FF00040A8BFCFF680708C
:1023E000704711460AE028BF20F00100FE2A38BFDE
:1023F0007047F0E7002880F233804042B0FA80F363
:10240000083B0CD4984001EB0302C2F1950200EBAB
:10241000C25040F00040FE2A38BF704713E003F17D
:10242000210310FA03FCC3F1210320FA03F0A3EB0C
:10243000010202F1950240EBC25040F0004008D08A
:10244000FE2A38BF70474FF00040A8BF40F0FF4061
:10245000704728BF20F00100FE2A38BF7047F2E71E
:1024600020B3B0FA80F3083B0AD4984001EB030292
:10247000C2F1950200EBC250FE2A38BF704711E04E
:1024800003F1210310FA03FCC3F1210320FA03F046
:10249000A3EB010202F1950240EBC25007D0FE2AE5
:1024A00038BF7047ACBF4FF0FF400020704728BFD7
:1024B00020F00100FE2A38BF7047F3E7002289B3FD
:1024C000B1FA81F3083B14D4994010FA03FCC3F12C
:1024D000200320FA03F040EA0100A2EB0302C2F15C
:1024E00095021CEB0C0C40EBC2501ED0FE2A14D2FD
:1024F000704703F1210311FA03FC5CEA000CC3F1FD
:10250000210321FA03F0A3EB020202F1B50240EB32
:10251000C2500AD0FE2A38BF7047ACBF4FF0FF4010
:10252000002070471146FFF79BBF28BF20F0010035
:10253000FE2A38BF7047F0E70000000000000000EE
:1025400000000000DB60BE284A059193F4D5097FA6
:1025500070374D7D66A5D83610E4104FAFF22402D7
:102560004B1102EB830201F01F034FF001049C406A
:10257000A4FB0034D568A5FB0456956805FB0466EA
:10258000E5FB0356556805FB036670470000000035
:10259000410201D150F0004050F480007047F0B586
:1025A000012363F3DF50C1F109014FF07E07FFF70C
:1025B000D5FFB30F53F100039C44B6EB8376B20012
:1025C00028BF5242B2F1805F0BD20231FFF7C6FF43
:1025D00096EA260242F10002B2F1805F01D2023F88
:1025E000F3D50A4CA2FB0424B4FA84F29440240AE2
:1025F000A7EB020244EBC250C10DD1F17F01F60FEF
:1026000000EBC673BDE8F04073E00000A2DA0FC92A
:1026100011F1800FBCD030EACC7248BF0CF1020C33
:1026200020F0004000EE100A0DA2F2EC032A22EE88
:10263000802A11F1080FB9FE422AB0DDA2EE630A2A
:10264000A2EE430A10EE103AFDEEC21AC3F3C752CF
:10265000782AA4D3D2F17F0111EE902A944448E065
:1026600083F9223F7A7795B60010C93F07B5C0F3CA
:10267000C751FF2925D000F032F8BDE80640CEF85A
:1026800000000ED2C9438CEAD17C63EEA02AE1EEB1
:10269000032A73EE622A12EE900A80EACC70106070
:1026A00000BD8CEAD17C21EE232AA3EE602A8CEABD
:1026B000D37133EEC22A12EE100A80EAC1701060A4
:1026C00000BD4102BDE80E4001D150F0004050F481
:1026D00080001060186070475FF0000C01E05FF050
:1026E000010CC0F3C751A1B3D1F17F0190D920EA09
:1026F000CC7323F0004000EE100AC0F38440203079
:1027000030FA01F1834A51F10001B2EC024A02EBC6
:10271000810202EBC102D2EC032A70EE620A20EEC3
:10272000A01A5FEA5C0C61EE201A15D221EE041AA1
:1027300061EEA41A70EEE10A21EE232AA3EE602ACC
:102740008CEAD37133EEC22A12EE100A80EAC1700D
:10275000704700F00040C7E761EEA41A70EEE10A8E
:1027600021EE041A63EEA02AE1EE032A73EE622A38
:1027700012EE900A80EACC70704700BFAFF3008081
:10278000C1FEFF3E25AA2A3E000000000000803F57
:102790000000000061C9FC3CCDE07F3F1CBFFC3C59
:1027A0007605813DFE7D7F3F9EEF803D090CBF3D5C
:1027B0000FE37E3F22C5BE3DB624FF3D14047E3F9D
:1027C000E27BFE3D13071F3E48EB7C3FA0631E3EAD
:1027D0006D30403E1D817B3F15103F3EA2AD603EF7
:1027E000CFDC793F3EE15E3E7B0D803EFA08783FCC
:1027F00096717D3E6E988F3E65FF753F68B88D3E41
:10280000F4E19F3E939E733FFD4B9D3EC654B03E08
:10281000AEF7703FB3DDAC3EC589BF3E604B6E3F47
:102820000A1ABB3E26C4CF3ECA356B3F631CCA3E64
:10283000F254E03E66D1673F0739D93EDDF0EF3E06
:102840004B66643F1641E73E312B003F8894603F62
:102850000FC3F53E07E4073FA2C55C3F2B99013F3C
:10286000C51F103F8F7D583F65A1083F8AF6173F6F
:10287000B534543FCA310F3FE2FF1F3F599B4F3FD2
:10288000D7C8153F4606283F6BCF4A3FC4371C3F89
:102890004130303FE0B9453FE49A223FA71D383F21
:1028A000CA98403F20A6283F2FC73F3FAC763B3F0A
:1028B0004A562E3FDB13483FCCB6353F6B52343F70
:1028C00079C74F3F2F35303FD0B4393F52DD573FA6
:1028D00070412A3F912D3F3F26CE5F3F9F3E243FD0
:1028E000C35D443FF125683F50C21D3F1C9D493FD9
:1028F000E13B703F4150173FBF7E4E3F7810783F1D
:1029000071ED103FAF06533FD4F47F3FA75A0A3F03
:102910009B64573F802700109A4238BF8854704705
:10292000704700BF2DE9F84F9A460D9B17469A074E
:1029300006468B46DDF8288011D1DDE90B32934243
:102940000DD213463C460B9A9D1A3D4422465346EF
:10295000594620200134B047AC42F7D100E03D4653
:102960000B9B73B108EB030404EB0509A9EB04020C
:1029700014F8010D53465946B0474445F6D10B9B18
:102980001D440D9B9B070ED50C9BEF1BBB420AD928
:102990001C462A465346594620200137B047BC42C0
:1029A00005F10105F5D82846BDE8F88F2DE9F04F6F
:1029B0000F9EDDF824E016F0020F0A9C9DF82C9083
:1029C0000E9DDDE90C872CD1002D74D1BC4206F0A0
:1029D000010B80F0CB801F2C88BF202400F2C68022
:1029E00004F1FF3C4FF0300AF44401E0202C04D005
:1029F0000134A7420CF801AFF8D8BBF1000F10D09A
:102A0000A5420ED9202C2DD004F1FF3C4FF0300A06
:102A1000F44401E0202C25D00134AC420CF801AF85
:102A2000F8D116F0100F38D016F4806F26D10CBBF9
:102A3000B8F1100F7FD0B8F1020F00F0928030246F
:102A40008EF800400124B9F1000F2BD02D270EF88D
:102A500004700134CDE90B56CDE909E4BDE8F04F2F
:102A6000FFF760BF16F0100F4FF02004F2D016F4FD
:102A7000806F03D1A74249D0A54247D0B8F1100FCB
:102A80004ED0B8F1020F39D0202CE3D04FF0300CEB
:102A90000EEB040787F800C00134202CDAD0B9F11E
:102AA000000FD3D177071DD43707D3D520270EF8D1
:102AB00004700134CEE716F0010B0DD0B9F1000F10
:102AC00022D116F00C0F1FD1BC4299D21F2C87D9EE
:102AD000202DC7D82024A4E7BC42A2D21F2C7FF609
:102AE0007FAFF7E72B270EF804700134CDE90B56C2
:102AF000CDE909E4BDE8F04FFFF714BF202CA9D0C1
:102B00000EEB0407013440E0013DDDE7671E8FD086
:102B1000B8F1100F2FD0B8F1020F35D03C46B5E711
:102B2000B7060FD4202C95D00EEB040C0134782777
:102B30008CF80070A8E7B4060ED478248EF8004014
:102B40000124A3E7202C85D04FF0580C0EEB04078E
:102B500087F800C0013497E758248EF8004001241C
:102B600094E762248EF8004001248FE7BBF1000F48
:102B700008BF002555E716F0200FA4F10204E3D1A9
:102B80000EEB040C3C46D2E777444FF0620C87F81A
:102B900000C079E700B9704701F0E4BA0000000016
:102BA0002DE9F04F2DED048B9BB02A9CDDE928899F
:102BB00009942B9C83461D460D940C920C4642466C
:102BC0004B4640464946DDF8B0A0FFF7A5F900287E
:102BD00040F0D680404649464FF0FF32744BFFF735
:102BE000FBF9002840F0CC80404649464FF0FF32C8
:102BF0006FF48013FFF7B4F9002840F0C18040461D
:102C0000494600220023FFF7ABF9002840F0C181BC
:102C1000CDE90A89DDE90A231F461AF480631646C6
:102C20001193099B08BF0623099356EA070340F056
:102C3000C3801AF4006E00F0A4819FED5B7B00233B
:102C40008DED0E7B1093099B109A00269342D2BF04
:102C50000023A3EB020E0EF1FF3309934AF4806ABE
:102C600010960D9BB34294BF00279F1B1AF00203DE
:102C7000119302D0002E18BF0027109B3BB1DDE955
:102C80000A01DDE90E23FFF7A3F8CDE90A0140466A
:102C9000494600220023FFF763F930B1DDE90A015C
:102CA000024601F10043CDE90A239DED0A7B099B11
:102CB0008DED007B02932AF40063049321462B469A
:102CC00058460C9A039700F09BF98046002E51D08D
:102CD0001AF0200F424614BF452065202B4621469E
:102CE000D847109A0DF1480C82EAE273A3EBE27325
:102CF0004FEAD27E002762461846DFF8B89008F106
:102D0000010806F1FF3A01E0202F0FD00646A9FB8B
:102D10000031C90801EB8103A0EB43033033092ED6
:102D2000084607F1010702F8013BEDD80523002012
:102D300006930A234246CDE9033021462B465846E6
:102D4000CDE9017ECDF814A0CDF800C0FFF72EFE2E
:102D5000119B804673B10C9B0D9FC61AB74209D9CF
:102D600042462B46214620200136D847B74208F17B
:102D70000108F5D840461BB0BDEC048BBDE8F08FD0
:102D80000D9B21462B9358462B46099C0C9ACDE966
:102D90002889CDF8B0A02A941BB0BDEC048BBDE807
:102DA000F04F00F02DB900BF00000000000000004F
:102DB000FFFFEF7FCDCCCCCCC7F30A50A0F2FF30A1
:102DC000FFF762F88AA3D3E90023FEF7DBFF8AA3AB
:102DD000D3E90023FEF7AEFFC7F3130341EC180B52
:102DE00043F07F51304600227B4B41F44011FEF707
:102DF000B5FF6BA3D3E90023FEF7C4FF02460B46E1
:102E000051EC180BFEF796FFFFF762F81090FFF7F2
:102E10003BF865A3D3E9002306460F46FEF7B2FF51
:102E200000226E4BFEF786FFFFF752F80346394645
:102E300030460E935EA3D3E90023FEF7A3FF0646B8
:102E40000E980F46FFF720F85BA3D3E90023FEF7A7
:102E500099FF02460B4630463946FEF77FFF024691
:102E60000B4606460F46FEF78DFF324641EC180B27
:102E70003B4630463946FEF75DFF002241EC190B18
:102E8000574B51EC180BFEF7A3FF0022554BFEF7F2
:102E900051FF02460B4651EC180BFEF799FF00223A
:102EA000514BFEF747FF02460B4651EC180BFEF75D
:102EB0008FFF32463B4606460F4600204FF08041CA
:102EC000FEF74CFF02460B4630463946FEF732FF0E
:102ED00002460B4651EC190BFEF77AFF0022434BDA
:102EE000FEF728FF0E9B002203F2FF363305FEF7A4
:102EF00049FF06460F46DDE90A0132463B46CDE969
:102F00000E67FFF72DF860BB31463A46109B6333DE
:102F1000C72B34BF042605261AF4006F3FF4A1AE78
:102F200051EA02033FF48FAEDDE90A0124A3D3E99D
:102F30000023FFF73DF848B1DDE90A0122A3D3E9F8
:102F40000023FFF70DF800287FF47DAE099B002BCE
:102F50003FF487AE119A002A3FF483AE013B0993F8
:102F60007FE6109B0022013B109330461D4B3946F3
:102F7000FEF72EFF0B4602460146CDE90E231A4608
:102F8000C4E79FED137B04268DED0E7BCDF840E06A
:102F900067E609F10043CDF828800B933AE600BFBD
:102FA00061436F63A787D23F71A379094F930A40AA
:102FB0001655B5BBB16B0240EF39FAFE422EE63F23
:102FC0002D431CEBE2361A3F0000000080842E41A6
:102FD00000000000000000000000F83F0000E03F9B
:102FE00000002C4000002440000018400000F03F8A
:102FF000FB799F501344D33FB3C8608B288AC63FE8
:103000002DE9F04F2DED028B95B0DDE922450695B7
:10301000249DDDE92067CDE90701CDE9092330468C
:1030200032463B4639460595FEF776FF002840F0CC
:10303000C481304639464FF0FF326FF48013FEF7FB
:103040008FFF002840F00D81304639464FF0FF32A7
:10305000BF4BFEF7C1FF002840F0DD80B8A3D3E9E5
:10306000002330463946FEF7B7FF002840F0C18004
:10307000B5A3D3E9002330463946FEF771FF002897
:1030800040F0B7803046394600220023FEF768FF43
:10309000002840F0DA802B460B9013F4806F08BFB5
:1030A00006243021A2460CABA4F1200206E00AF16E
:1030B000FF3A524503F8011B00F03181BAF1090FC4
:1030C000A4EB0A05F3D839463046FEF701FFA14BC1
:1030D000044603EBCA0393ED008BFEF7D5FE0246D0
:1030E0000B4630463946FEF739FE53EC182BFEF7F7
:1030F00049FE89468046FEF7FDFE8346FEF7D6FE72
:1031000002460B4640464946FEF728FE0022924BF7
:1031100080468946FEF760FF002800F0F1800BF141
:10312000010B5846FEF7C2FE02460B4651EC180B47
:10313000FEF72AFF10B14FF0000B0134BAF1000F77
:1031400040F09A802046FEF79FFE02460B4630462E
:103150003946FEF703FE00227F4B06460F46FEF778
:10316000FFFE40B93046394600227B4BFEF734FF64
:10317000002800F016816A1E0CAB78491A44202DF5
:103180004FEAE47300F0938081FB0460C3EBA0037B
:1031900003EB8300A4EB400404F1300001351C462E
:1031A00002F8010F002BEAD1059B03F00303012B6A
:1031B00000F08380202D0AD00B9B002B00F0B18003
:1031C0002D2205F150036B4403F8202C0135059B9B
:1031D0000CAC0393069B0094CDE90153DDE9070194
:1031E000DDE90923FFF79EFB15B0BDEC028BBDE8BE
:1031F000F08F059BCDE92067DDE907012493069B4D
:1032000022942393DDE9092315B0BDEC028BBDE8C0
:10321000F04FFFF7C5BC05F004042395504D002C7A
:10322000504C18BF2C46DDE9070120940CBF032445
:103230000424069B2293DDE90923219415B0BDECFB
:10324000028BBDE8F04FFFF76DBB01213B463246D4
:103250000B9100200021FEF781FD2B4606460F460C
:103260001BE7069C239522940424DDE90923DDE96C
:1032700007013D4D2095E0E7681E0CAB3B4F18441D
:103280000FE0A7FB0B32D20802EB8203ABEB430348
:103290003033BBF1090F00F8013F69D9B2469346BC
:1032A0000D46202D0AF1FF3605F10101E9D1059BFC
:1032B000202503F00303012B89D1069B002B3FF44B
:1032C00079AF0B9B1BB9059B13F00C0F02D0069B2B
:1032D000013B0693069BAB427FF66CAF202D0DD0D1
:1032E00030226B1E0DEB02010B44069901358D4215
:1032F00003F8012F3FF45EAF202DF7D1202566E7BC
:10330000404649460022144BFEF72AFE00287FF46F
:1033100015AFBBF1000F4BD10BF1010B0EE72025D0
:10332000D1E6059B5A0741D41B077FF550AF2022F9
:1033300005F1300313446B4403F8202C013546E7B4
:103340000000000065CDCD410000000065CDCDC17D
:10335000FFFFEF7F38CD00100000E03F6766666634
:1033600024CD001020CD001030CD0010CDCCCCCC21
:1033700020299CD05EB30CAB5A1930200D46013584
:10338000202D02F8010F92D0EB430B4413EB0A0FF0
:10339000F5D12E2205F150036B4403F8202C0135A2
:1033A000E9E6E1077FF5E7AE0134E4E62B2208E722
:1033B0001BF0010F3FF4C2AEAEE7069C23952294AA
:1033C000044D0324DDE90923DDE9070152E70D4639
:1033D000DFE700BF2CCD00102DE9F04F9BB0249CFF
:1033E000844D0994844C0F1E18BF834625601878BD
:1033F000824D904608BFAB46002800F0C4821C46B0
:103400004FF0000A0AE0524643463946D8470AF1CF
:10341000010A01342078002800F0C9802528F2D163
:103420000021631C1C4613F8010BA0F12002102A96
:103430000AD8DFE802F03C09093909090909090934
:103440000936093309093000A0F13003092B40F295
:1034500090802A2800F0B98000252E2800F098805E
:1034600000230A93A0F16803122B27D8DFE813F09A
:103470001F0126001A01260027012600260026002B
:103480002600260026002600220026002600260010
:1034900026002600220041F00101C3E741F00201AD
:1034A000C0E741F00401BDE741F01001BAE741F087
:1034B0000801B7E7607841F480710134A0F1250379
:1034C000532B00F28E80DFE813F01C018C008C007F
:1034D0008C008C008C008C008C008C008C008C008C
:1034E0008C008C008C008C008C008C008C008C007C
:1034F0008C008C008C008C008C008C008C008C006C
:103500008C008C008C008C008C00C5010201C50170
:103510008C008C008C008C008C008C008C008C004B
:103520008C008C008C008C008C008C008C008C003B
:103530009B008C008C008C008C008C008C008C001C
:103540008C008C009B008E019B00C5010201C5010F
:103550008C009B008C008C008C008C008C009B00ED
:103560006E018C008C0026018C009B008C008C006E
:103570009B00002505EB850500EB450514F8010FC0
:10358000303DA0F13003092BF4D92E287FF468AF29
:10359000607841F48061A0F13003092B04F101024D
:1035A00040F23F812A2800F04B81144658E75446E8
:1035B000D04501D808F1FF3A43465246394600202B
:1035C000D84720461BB0BDE8F08F099B607853F8C0
:1035D000045B0134002DBCBF41F002016D42099330
:1035E0003BE752464346394601340AF1010AD847BF
:1035F00010E700BFD9330010742E002021290010DD
:10360000782800F07A81582800F0C0816F2800F0F7
:103610000E82622800F06A8321F0100369284FF0BF
:103620000A090B9340F00682490500F16D810B9B5E
:1036300013F4007040F0088213F4807140F0E382CC
:103640005E06099A00F1498213F0800F52F8043B9C
:1036500000F097831BB2099283EAE372A2EBE37254
:1036600092B2D80F0D90002B40F065820B9820F09D
:10367000100340050B9340F15E8212AB0C9352464F
:103680000B9BCDE905530A9BCDE903930D9BCDE937
:1036900001130C9B0093434639465846FFF786F9C1
:1036A00082467EE0607841F40071013406E760787C
:1036B000682800F0638141F080010134FEE6607803
:1036C0006C2800F0568141F480710134F6E60A9BC3
:1036D000462808BF41F020010293099BCDE9035120
:1036E000073323F00705B5EC027B524643463946C3
:1036F00058468DED007B0995FFF782FC0134824628
:1037000088E60AF1010052464346824639462520A2
:103710000134D8477EE6099B53F8046B0D930A9B4E
:103720003078002B00F0D880002800F032835A1E39
:103730000132B146324401E0914503D019F8013F0E
:10374000002BF9D1A9EB0603099311F480630B93C5
:1037500005D0DDE90932934228BF1346099311F0E1
:1037600002030C9300F04981002800F034810B9B88
:10377000002B00F0B7800A9B52465344994608E05C
:1037800043463946D84716F8010F0AF1010A10B12D
:103790005246D145F4D10C9B002B40F01C810D9B6F
:1037A0000993013436E6099850F8043B002B74D095
:1037B00041F0210512AA164600210C9202E02029B0
:1037C00074D0134603F00F0C6246BCF1090F94BF8E
:1037D000303237320F2B06F8012B01F101014FEA8D
:1037E0001312ECD862E08B0740F1DA80DDF8249008
:1037F000524659F8040B43463946C0B2D847012D0A
:103800000AF1010688BFAA4440F29181324643463C
:10381000394620200136D8475645F7D1CDF82490B7
:10382000BFE7002303EB830300EB430312F8010F10
:10383000303BA0F13004092CF4D914460A9311E668
:10384000099BA07853F8042B0234099322EAE2730F
:103850000A9307E600F0DF03472B08BF00F0FD00E6
:103860000A9B08BF41F40061452808BF41F02001D0
:103870000293099BCDE90351073323F00705B5EC0B
:10388000027B52464346394658468DED007B0995EA
:10389000FFF786F901348246BCE521F010054E059C
:1038A00045F0210586D5194612AB0C930A9B52466A
:1038B00004930C9B01910093082305931023039319
:1038C0000023099002933946434658460695FFF770
:1038D0006DF8013482469DE56FF0010200287FF407
:1038E00027AF31E7524643463946D84716F8010F0D
:1038F0000AF1010A0028F5D14DE74FF0100921F037
:103900000C0349050B9303D50B9B23F001030B9389
:1039100069283FF48CAE64283FF489AE0B9B13F406
:10392000007040F0528113F4807140F0C6815E0651
:1039300040F1F080099B53F8042B0993D2B2002A7E
:1039400040F01E810B9820F0100340050B9340F1CE
:103950001781114612AB0C930B9B0191CDE90553D6
:103960000A9BCDE9039352460C9B009300230293DC
:1039700091E6A07841F4407102349FE5A07841F0CF
:10398000C00102349AE50446824611E621F00C0398
:1039900043F020030B934B054FF01009B4D4BDE75F
:1039A000012D40F2F4810AF1FF331D445246434693
:1039B000394620200AF1010AD847AA45F6D1099EC6
:1039C000434656F8040B2A463946C0B2D84705F19B
:1039D000010A0996E5E6099B56469D427FF6DFAE51
:1039E00005EB0A00A0EB030A324643463946202085
:1039F0000136D8475645F7D1D1E6099A954202F1EA
:103A0000010340F2C88105EB0A09A9EB02095246FD
:103A10004346394620200AF1010AD847CA45F6D163
:103A200030786B1C099300287FF4A1AEB7E64FF005
:103A300008090B91642818BF0B997FF460AF0B9BAA
:103A40005A053FF561AFF2E5099B073323F0070301
:103A50001A4610465B6850F8082B002B194616468C
:103A6000099060DB0846D90F13430D913BD00B9BA7
:103A7000002113F0200F14BF4123612312AA0A3B37
:103A8000CDE90EA51094CDF844B00D4614468246FB
:103A90009B460C9203E0202D17D006468A463046FE
:103AA0004A465146002308F04BFED2B2092A02F1E1
:103AB000300388BF02EB0B03DBB24E4504F8013B39
:103AC0007AF1000305F10105E5D22A46DDF838A0B8
:103AD000109C0F9DDDF844B00FE052F8043BDBB2C0
:103AE00009921A46BDE50B9A22F0100352050B937A
:103AF000BDD500231A4612AB0C930B9B0192CDE966
:103B000005530A9B5246CDE903930D9B02930C9BF0
:103B10000093C0E513F0800F099B53F8042B099321
:103B200018BF92B20BE7564263EB43019AE7B246E5
:103B3000CDF8249035E60B9B13F0200F14BF4FF007
:103B4000410E4FF0610E12AB9C460C93AEF10A0E83
:103B500003E020293FF493AD3246B2FBF9F609FBAE
:103B60001620C3B2092803F130008ABF7344C3B2E0
:103B7000DBB24A450CF8013B01F10101E9D27EE5D7
:103B80000B9B13F0200F14BF4FF0410E4FF0610E4E
:103B900012AB9C460C93AEF10A0E03E020293FF4D1
:103BA000DBAE3246B2FBF9F609FB1620C3B2092898
:103BB00003F130008ABF7344C3B2DBB24A450CF84C
:103BC000013B01F10101E9D2C6E6099B073323F06D
:103BD00007035A6853F8086B1046099356EA020324
:103BE00035D10B9A22F0100352050B932FD50023E9
:103BF0001A4612AB0C930B9B0192CDE905530A9B1D
:103C0000CDE90393AFE6099B1A4652F8043B0D92A7
:103C1000D90F83EAE372A2EBE3720991002B68D11A
:103C20000B9921F010030B934B0562D512AB0C934B
:103C30000B9B5246CDE905530A9BCDE90393099BA3
:103C4000CDE901030C9B00930D9B099323E50B9B8E
:103C5000002113F0200F14BF4123612312AA0A3B55
:103C6000CDE90DA50F94CDF840B00D46144682461F
:103C70009B460C9203E0202D17D006468A4630461C
:103C80004A465146002308F05BFDD2B2092A02F1F0
:103C9000300388BF02EB0B03DBB24E4504F8013B57
:103CA0007AF1000305F10105E5D22A46DDF834A0DA
:103CB0000F9C0E9DDDF840B09DE7099B53F8042B47
:103CC0000993002A39D10B9921F010030B934B056E
:103CD00033D512AB0C930B9B5246CDE905530A9B8F
:103CE0000190CDE903930C9B00933FE64FF002094E
:103CF0009FE60B9B13F0200F14BF4FF0410E4FF0C7
:103D0000610E12AB9C460C93AEF10A0E02E0202825
:103D10008ED03246B2FBF9F609FB1621CBB2092947
:103D200003F130018ABF7344CBB2DBB24A450CF8D1
:103D3000013B00F10100EAD27AE70B9B13F0200F60
:103D400014BF4FF0410E4FF0610E12AB9C460C9326
:103D5000AEF10A0E02E02028BDD03246B2FBF9F6E1
:103D600009FB1621CBB2092903F130018ABF734444
:103D7000CBB2DBB24A450CF8013B00F10100EAD2BC
:103D8000A9E7099283EAE372A2EBE37269E455467C
:103D900015E60990D9E4099300287FF4E8ACFEE425
:103DA0000EB410B585B007AC54F8043B01464FF093
:103DB000FF32009404480394FFF70EFB05B0BDE802
:103DC000104003B0704700BF1929001084460CB49E
:103DD00010B584B006AC54F8043B0A460094614622
:103DE00004480394FFF7F8FA04B0BDE8104002B0AD
:103DF000704700BF192900100FB410B50E4B84B0E6
:103E000006A91C6851F8043B03915CB100914FF086
:103E1000FF3202A90948A047012004B0BDE81040C4
:103E200004B07047184600F0DBF9204604B0BDE846
:103E3000104004B0704700BF742E0020952B001076
:103E400010B5094B84B01C684CB1034600914FF08B
:103E5000FF3203A90548A047012004B010BD00F0BF
:103E6000BFF9204604B010BD742E0020952B001021
:103E700000BEFDE7074A0346106838B1064903440F
:103E80008B428CBF4FF0FF301360704703490846E8
:103E90001160F3E7702A002000000820B02E0020F7
:103EA0000B46114628B9044A1846D2E9002300F00F
:103EB0001BB94FF0FF30704750CC0010431E012B50
:103EC00009D810B51446084601230022214600F007
:103ED00097F8204610BD4FF0FF3070474FF0FF308D
:103EE000704700BF4FF0FF30704700BF08B5FFF7C5
:103EF000BFFF00BF144600B5024683B0084619460E
:103F00004CB1064D0346019405480095FFF774FF38
:103F10000120FFF7ADFF034D2C46F3E788CD0010DD
:103F200098CD0010E8C8001038B5064D064CFDF7D6
:103F3000F5FDAC4204D254F8043B9847AC42FAD3A6
:103F400038BD00BFB0C70010A8C7001003680846FE
:103F500011461847437D2DE9F04782460F469146AA
:103F6000002B44D0002A2ADD002401252046DFF85A
:103F70008C804E1E2CB3337816F8012FA3F10D035D
:103F8000B3FA83F30A2A4FEA531320D02B469945FC
:103F900004F1010405F10105ECDC814505DDA9EB27
:103FA0000001DAF80030384498474F4417F8013CD4
:103FB000A3F10D03B3FA83F35B098AF81430BDE86B
:103FC000F08716F8012F9AF814300A2ADED1002B58
:103FD000DCD1A04204DA211ADAF8003038449847DC
:103FE00040460221DAF8003098472846CEE73846A6
:103FF000DAF800301146BDE8F0471847C8CD001088
:104000002DE9F04782B00D46924699460746FDF7E6
:1040100041FB2F4A821841F10003002BBCBF4FF037
:10402000FF326FF000432B4808F09AFB6B1C804670
:1040300003D1384602F0D0FD0546274B274E1C68B9
:10404000274BB9F1000F08BF1E46B4B1BAF1000FFB
:104050001AD1DFF8909001E0246974B12368002B35
:10406000FAD0D9F800300BB1A342F5D120462A4648
:104070003946B0472469002CF0D1B8F1000F1FD1A8
:10408000284602B0BDE8F0874FF00A0ADFF85490E6
:1040900002E02469002CF0D02368002BF9D0D9F875
:1040A00000300BB1A342F4D120462A463946B0472E
:1040B000204601220DF107018DF807A0B047E8E77F
:1040C000044808F041FB284602B0BDE8F08700BF75
:1040D00040420F00601E0020642A0020553F00105F
:1040E0004D3F00106C2A00202DE9F04F07460E4688
:1040F000984683B0DFF860B0DFF860A0DFF860902A
:104100000192DBF8004014B911E024697CB1DAF8BF
:1041100000500DB1A542F8D1A368002BF5D031466F
:10412000384698470028F0DD03B0BDE8F08FD9F895
:10413000243098450BD8D9F8282001998A4201D219
:10414000984504D06FF0010003B0BDE8F08F012066
:104150000021FDF7A9FAD4E7642A00206C2A002088
:1041600000000B40F0B583B006468DF80700FDF760
:1041700091FA174A821841F10003002BBCBF6FF07F
:1041800000434FF0FF32134808F0EAFA124B07469B
:104190001C689CB1114D01E024697CB12368002B9F
:1041A000FAD02B680BB1A342F6D1204601220DF1C3
:1041B0000701FFF7CFFE2469002CEFD117B9304675
:1041C00003B0F0BD034808F0BFFA304603B0F0BDBD
:1041D00040420F00601E0020642A00206C2A00204C
:1041E00038B5044602F0F8FC012305461A4620467D
:1041F0002946FFF705FF084B1C682CB163682BB1FB
:1042000098472469002CF9D1284638BD2469002C30
:10421000F4D1284638BD00BF642A0020F8B500F06C
:104220003BF90C2340271A4D1A4CAB67FF220E2096
:104230001949FCF749FD3A460021204602F0CEF923
:10424000164B0126A36280210023154A6670A260E6
:10425000843A278327876184C2F88430C2F880308B
:10426000636084F8213084F83B3063620D4BE36077
:10427000E36208F05DFA4FF000544FF480320A49CF
:104280000A4B2E643046EC64C5F89010DA64F8BD31
:1042900000001150742A00205503002080001050A7
:1042A000840010500001105010D001000020115067
:1042B00001210E20FCF7C2BC00220248114600F08A
:1042C0000BB900BF942A0020044B197021B14FF4A0
:1042D0000032034BC3F89020704700BFAD2E002082
:1042E000002011500B785B0602D14B78052B00D0D3
:1042F00070474B88014ADBB21360704700001150D1
:10430000CB782DE9F04103F0030EBEF1010FC3F3AA
:1043100001005FD0002791F802C0374D0CF07F02FA
:104320005600898806EBDC1305EB43134FEADC14D7
:10433000C1F30A01D87684F0010083F802C0198322
:104340005870DF7094BB04232C4803EBC20305EBC9
:10435000821C03EB0008CCF808801F508AB3284B5E
:10436000D2001344CCF804303F31BEF1020F21F0EB
:104370003F013AD0234A3719136805EB4717194410
:104380001160214AFB60914231D8344405EB441559
:10439000E97E83F0A04383F480136A6843EA816373
:1043A00043F0004301201360BDE8F081134813B2CD
:1043B00000EBC20805EB821CCCF8288040F8337073
:1043C0005AB90023114A05EB44140120E2606360EE
:1043D000BDE8F0810020BDE8F081D20002F1A042EA
:1043E00002F58012CCF82420BEE74900C2E7FDF7B1
:1043F0008FFBFB68C9E700BF742A002080001050C3
:1044000004001050782E0020FF0F105000011050B3
:1044100008F08EB98C4608B5114607481A460CF0CC
:104420007F034FEADC1C0CEB430C00EB4C1000F05C
:1044300053F8012008BD00BF742A002011F07F004E
:104440000AD0C909074B01EB40004FF4006200217C
:1044500003EB401008F080B9034BC909C1F1020217
:104460009A66EFE7742A00200020115011F07F03B4
:1044700000D17047002210B4C809064C00EB43007D
:1044800004EB40136FF4006118465DF8044BDA70DA
:1044900008F062B9742A00204FF0805209480A4996
:1044A00008B50A4B02600A609968C94311F080514F
:1044B000FAD14FF48052064802F090F80922054BD9
:1044C0005A6708BD00200240003002400000024050
:1044D0000000105000001150837E10B50446BBB997
:1044E0004FF0000C01232046A2822161A4F816C0DF
:1044F000A37608F011F920B14FF40032084BC3F84D
:104500009020204608F024F928B10123237710BD1C
:1045100008F0FEF8E4E72046BDE8104008F004B9D2
:1045200000201150002070472DE9F0414FF00008A5
:104530001C4C0746424623781B4E1C4D0DE02B6851
:1045400013EB421325D0DB683846984708F1010881
:1045500023785FFA88F2934206D39342A2EB0303D7
:10456000EDD806EB4313EEE7114C54220021204610
:1045700002F034F84FF0FF33251D6360C5E90133C5
:10458000EB6004F114002022BDE8F041FF2102F0AD
:1045900025B84FF0E023D3F8F03DDB0700D500BE8F
:1045A000BDE8F081AC2E002028CE001004210020B0
:1045B00018290020704700BF704700BF00207047D7
:1045C0000020704700207047704700BF704700BF51
:1045D000704700BF704700BF024B5878003818BFC3
:1045E0000120704718290020024B1878C0F3800082
:1045F000704700BF182900202DE9F047364F3B785F
:10460000FF2B4ED10C4600294FD0002154220646E4
:10461000324801F0E3FF0022314D324B28461A7038
:10462000FCF7D4FC304B1D60304D05F11400FCF755
:10463000DBFC284601F014FC2D4B1D602D4B23B1F3
:104640002D48AFF300802D4B18604FF0000A2A4D23
:1046500053462A78DFF8A890DFF8A0800CE0D8F85D
:10466000002012EB431311D05B687BB198472A7886
:104670005FFA8AF39A4222D393420AF1010AEED3F7
:104680009B1A09EB43135B68002BEFD14FF0E0233B
:10469000D3F8F03DDA0700D500BE00242046BDE87F
:1046A000F08701242046BDE8F0874FF0E023D3F8DF
:1046B000F03DDB07F1D500BE2046BDE8F08721467E
:1046C00030463E70FFF7AAFD04460028EDD0304684
:1046D000FFF7EEFDE6E700BFAC140020182900202C
:1046E00010290020AE2E00206C29002090140020FC
:1046F0007029002000000000AC2E002004210020C2
:1047000028CE00102DE9F04FDFF8BC928BB099F85D
:104710000030FF2B00F0EC80A64CDFF8B0A2DFF8F1
:10472000B0B225686B69EFF3108272B6D3E8CF0F91
:1047300001210028FAD1C3E8401F0028F6D1BFF3B9
:104740005F8FAA61284607A901F0E6F900236A698C
:10475000C2E88F3FAB6983F31088002800F0C8805F
:104760009DF81D30013B072B00F27983DFE803F051
:10477000A4AF909988360A04089B002BD1D00998E1
:104780009847CEE79DF820108B4B01F07F0503EB97
:10479000450303EBD11393F834206FF3000283F841
:1047A000342093F834206FF3820283F83420002DF4
:1047B00000F0A18081481A7D03789A4280F09080B1
:1047C000DBF8003013EB421300F08B809D699DF8FD
:1047D0002120099B9DF81C00A847A2E7784A13787E
:1047E000002B7ED01378013BDBB21370137803F0FB
:1047F000FF00002B95D1704D9DF81C802B7843F065
:1048000001032B7095F8343060F3000385F83430E1
:1048100095F8343060F3820385F8343095F83530FC
:1048200060F3000385F8353095F8353060F3820386
:1048300085F8353000F078FC9DF8203003F06002F8
:10484000602A0BD0402A60D003F01F03012B00F038
:10485000C180022B00F08680002B62D04FF0E02355
:10486000D3F8F03DDD0700D500BE9DF81C00002107
:10487000FFF7E4FD80219DF81C00FFF7DFFD50E706
:104880004D4B1B78D9077FF54CAFFFF7A3FE48E7E8
:10489000494BDB78DA077FF544AF0898FFF78CFEC9
:1048A0003FE7454B1A78D0077FF53BAF1878C0F348
:1048B000C000FFF78DFE34E79DF81C00FFF734FEC3
:1048C00000F028FC3C4B9DF820209A7029E79DF8C9
:1048D0001C00FFF729FE00F01DFCFFF777FE20E724
:1048E00011D04FF0E023D3F8F03DDC0700D500BE37
:1048F0000BB0BDE8F08F099B9DF821209DF81C00AE
:1049000000F026FC0DE7534660E72E4800F00CFC53
:104910004046012108AAFFF705FE00287FF401AFF9
:10492000A3E7202A00F08081002A97D19DF821304A
:10493000092B93D801A252F823F000BFC74B0010F7
:10494000AB4B00105D480010E94B00105D480010B3
:10495000914B00103F4B00105D480010294B001098
:104960005B4A00109DF8241011F0700F7FF476AFB1
:10497000124B01F07F06187805EB460303EBD113C9
:104980001B7DCF0983424FEA4606019753D340F07F
:1049900068815746002A00F06881786900F0C4FBFE
:1049A000404601217B6908AA984700287FF4B9AEE8
:1049B0005BE700BF7029002018290020AC2E0020E2
:1049C000AE2E002025450010AC14002028CE00108B
:1049D000042100209DF824300F2B3FF646AFAE4A4D
:1049E0002B441B791278934230D37FF43EAF554667
:1049F000686900F099FB012140466B6908AA984755
:104A000000287FF48EAE9DF8203013F060057FF40F
:104A10002CAF9DF821300A3B012B3FF626AF00F06A
:104A200083FB9DF821300A2B00F0EE81404608A957
:104A300000F0F0FA75E6DBF8007007EB4317002A88
:104A400000F01381002F3FF410AFA6E7DBF8005011
:104A500015EB43153FF409AFCAE76B789DF8226068
:104A60009E4200F04A816B78002B40F0BB816E7053
:104A7000002E00F04081701EC0B2FBF789FF0028B5
:104A800000F05C814378022B40F058812B78C2798A
:104A900023F03001C2F340131B01C2F3801243EA3A
:104AA00042130B432B70438800F10907C31802938C
:104AB000CDF80C80029BBB4240F2A1817B780B2B8E
:104AC00000F0AC814FF00108042B40F03781002644
:104AD000029B3946DA1B704B37461B78019692B21F
:104AE0001BE0DBF8006016EB471600F02781019B06
:104AF0000398013301933369CDE904129847DDE946
:104B00000412082802D9824280F0FC80624B9DF892
:104B100004701B78BB42C0F01181BB42A7EB0303BA
:104B2000DFD80AEB4316E2E76B7840468DF81A307F
:104B30000DF11A02012308A900F086FAF1E5BDF88B
:104B40002200030A5A1EC0B20E2A3FF68EAE01A101
:104B500051F822F06D4D0010054C0010A94D0010C9
:104B60006B4800106B4800108B4D0010054C001076
:104B70006B4800106B4800106B4800106B48001029
:104B80006B4800106B4800106B4800105F4D001020
:104B900008A800F0CFFA40469DF82210FFF78CFBE2
:104BA0002B7843F002032B70BBE5BDF82230012BBC
:104BB0007FF45BAE2B7840466FF3C30308A92B70DC
:104BC00000F028FAADE540462B789A0802F0020280
:104BD000C3F340131343ADF81A300DF11A02022348
:104BE00008A900F031FA9CE5BDF82230012B7FF4D2
:104BF0003CAE2B78404643F0080308A92B7000F028
:104C000009FA8EE5022B00F00F81FFF7DBFC02466C
:104C100000283FF42AAE4046538808A900F014FA51
:104C200000287FF47EAD20E69DF824300F2B3FF660
:104C30001CAE194A2B441B791278934227D2DBF819
:104C4000005015EB43153FF410AE686900F06CFAA4
:104C5000404601216B6908AA984700287FF461AD9E
:104C600003E6002A7FF401AE00279DF8212002F020
:104C7000FD03012B12D0002A7FF4F0AD019B3544D7
:104C80002B4493F834304046C3F34003A3E77FF44A
:104C9000ECAD5546D9E700BFAC2E0020BDF8223060
:104CA000ABB9012A00F0888099F80000FFF7C6FB35
:104CB000019AAB19134493F8342042F0020283F8AE
:104CC000342093F8342042F0010283F83420002F7E
:104CD0003FF427AD786900F027FA7B69012108AA23
:104CE00040469847002000F01FFA95F83530DE075F
:104CF0003FF517AD9AE6FFF769FC404608A900F0BA
:104D000089F90EE5B8F1010F33463E460F4600F033
:104D10009F80B8F1000F00F08E800023B97804E086
:104D20001671DAB2904540F28680CA1855FA82F2BE
:104D300092F804C00133BCF1FF0FF1D04FF0E02333
:104D4000D3F8F03DDB0700D500BE4FF0E023D3F8E9
:104D5000F03DDF0700D500BE00236B7085E5FFF74F
:104D60002DFC024600287FF456AF7EE5FBF70CFED3
:104D7000024600283FF472AD4046122308A900F015
:104D800063F900287FF4CDAC6FE5FFF719FC02460C
:104D900000283FF46AAD4046137808A900F054F9A2
:104DA00000287FF4BEAC60E5BDF82410FBF7F4FDED
:104DB00002460028EFD158E599F800000293FFF76A
:104DC00055FB019BAA191A4492F83410029B63F315
:104DD000410182F8341092F8341063F3000182F834
:104DE000341074E700214046FFF76EFA4046FFF7A3
:104DF0000FFBAF784046FFF797FBAF7037E6DDF863
:104E00000C80FFF7E1FB78E74046012308A90DF18C
:104E10001A028DF81A5000F017F982E43B7897F8DF
:104E200003801F447B784FE6FBF7B2FD0246002863
:104E30007FF4F1AE12E539460246334607440C488A
:104E400000F0E0FD0B4B1B78B342BFF433AE75E7C7
:104E50001B69094A934208BF4FF002085DE74FF013
:104E6000E023D3F8F03DDB077FF55BAC00BE58E4F0
:104E70002C290020AC2E0020215600102DE9F84FDF
:104E80000A9F002A40D00C461E4615464FF0000AE5
:104E9000DFF87C90DFF87C8018E0204698F802105C
:104EA00099F800B000F07AFDE0B121465846FFF7CE
:104EB00027FAF0B1A2780AF1010AD30916BF0B9BB9
:104EC0003A701A702278AA4514441DD06278052AD7
:104ED0000FD1E17801F00301B1420AD1A27812F0BA
:104EE000700FDAD04FF0E023D3F8F03DDA0700D5A9
:104EF00000BE4FF0E023D3F8F03DDB0702D40020E2
:104F0000BDE8F88F00BEFAE70120BDE8F88F00BFCA
:104F1000AC1400201829002038B58B7813F0700FDE
:104F200008D04FF0E023D3F8F03DDB0700D500BEFA
:104F3000002038BD074A084B0C46084691781D787A
:104F400000F02CFD0028ECD021462846BDE8384072
:104F5000FFF7D6B918290020AC1400200B46064AEA
:104F600006481168DA09343203F07F0302EB430389
:104F7000184400F0CDBC00BF6C2900201829002087
:104F80000B46064A06481168DA09343203F07F03FB
:104F900002EB4303184400F0E5BC00BF6C2900207D
:104FA0001829002010B5194C01F07F0C04EB4C04BB
:104FB00004EBD11090F834C01CF0010F08D04FF072
:104FC000E023D3F8F03DDA0700D500BE002010BD85
:104FD00090F834C000F130040D484CF0010C00781A
:104FE00084F804C0FFF716FA0028F0D14FF0E02251
:104FF000237960F300032371237960F38203237123
:10500000D2F8F03DDB07E1D500BE10BD1829002025
:10501000AC14002030B50B4C8C46A6460023054648
:10502000086849681A46AEE803009CF90010284653
:105030009942C4E90233BDE83040ACBF8021194633
:10504000FFF7B0BFDC2800202DE9F0412F4F4FF0D3
:105050000008BE468C46064608684968BA60AEE855
:105060000300A7F80E80BCF8065082B0AB4228BF00
:105070002B46BB819DB14BB314467AB397F9002000
:10508000402B28BF4023002A32DB4146204A3046CD
:10509000FFF788FF80B1012002B0BDE8F0819CF9E4
:1050A00000202B46002AACBF802100212A46304632
:1050B000FFF778FF0028EED14FF0E023D3F8F03D62
:1050C000DB0711D500BE02B0BDE8F08197F90010F2
:1050D0001A460029ACBF19468021D8E74FF0E023DB
:1050E000D3F8F03DDA070DD4002002B0BDE8F0811E
:1050F0001A4621460648019301F0FAF98021044A34
:10510000019BC4E700BE2046C6E700BFDC280020A4
:105110009C2800200022034BC3E90022C3E902229D
:105120001A617047DC280020014B1861704700BFEE
:10513000DC28002030B40246044C002523460068D9
:105140005168C4E9025530BC03C37047DC28002015
:1051500070B5414CC90922780546B1EBD21F1E46F5
:1051600082B021D04BB14FF0E023D3F8F03DDA0705
:1051700000D500BE002002B070BD2146FFF7B2F896
:10518000236973B12246032128469847012002B0C3
:1051900070BD01462846FFF751F980212846FFF7E8
:1051A0004DF9012002B070BD94F90020002A06DB01
:1051B000A0680028DED01A46284901F099F9E08954
:1051C000A168E288304480B231448242E081A1602B
:1051D00016D03F2E14D9A28994F90040131A9BB21D
:1051E000402B28BF4023002C27DB90424FF00001CA
:1051F0002FD01A4A2846FFF7D5FE0028D1D114E057
:1052000023692BB102212846134A98470028C0D0B1
:10521000002394F9002028469A42ACBF8021194609
:105220001A46FFF7BFFE0028BBD14FF0E023D3F8AA
:10523000F03DDB079ED500BE9DE7904208D01A46A0
:105240000648019301F054F98021044A019BD1E7FB
:1052500080210022CEE700BFDC2800209C2800200F
:105260002DE9F0410546FFF7B7F908B9BDE8F0812F
:10527000FFF7BAF907460028F8D14FF4527305FB3F
:1052800003F3134CE618F1780029EFD010331C44D7
:10529000204600F02FFC3F28E8D93846F178FFF788
:1052A0005DFE0028E2D0204600F024FC3F2809D90A
:1052B000084A3846F17802EBC5124023BDE8F041B8
:1052C000FFF770BE3846F178BDE8F041FFF758BEF1
:1052D0000C2200200821002010B50446FFF77CF9BD
:1052E00008B9002010BDFFF77FF90028F9D14FF46D
:1052F0005273034803FB0400007900F0010010BD65
:105300000C2200204FF4527208B5034B02FB003010
:10531000103000F0D5FB08BD0C2200202DE9F84329
:105320004FF6FE764FF6FF734FF45274B24298BFB9
:10533000134600FB04F41B4D9AB204F11003EF185E
:105340000646384600F032FC8046FFF745F910B9B2
:105350004046BDE8F883FFF747F981460028F7D1BA
:105360002C44E378002BF3D0384600F0C3FB3F28F1
:10537000EED94846E178FFF7F1FD0028E8D038463D
:1053800000F0B8FB3F2808D9074A48464023E17897
:1053900002EBC612FFF706FEDAE74846E178FFF7B0
:1053A000EFFDD5E70C220020082100202DE9F04177
:1053B0000646FFF711F910B90020BDE8F081FFF7AC
:1053C00013F907460028F7D14FF4527406FB04F492
:1053D000DFF8688004F124054544284600F070FB9E
:1053E0000028E9D0A044384698F80210FFF7B6FD2F
:1053F0000028E1D04022104902EBC6160E44284690
:10540000314600F0D3FB044678B1034632463846B5
:1054100098F80210FFF7C6FD58B94FF0E023D3F813
:10542000F03DDB07C8D500BEC7E798F80210FFF7CC
:10543000A7FD2046C1E700BF082100200C22002064
:1054400038B54FF6FE754FF6FF734FF4527CAA4203
:1054500098BF13460B4C9AB20CFB0044243405460B
:10546000204600F04FFC034620461C4600F028FB77
:105470003F2801D8204638BD2846FFF797FF204631
:1054800038BD00BF0C2200202DE9F04F0025012679
:105490004FF0FF094FF4E1380827304C83B029461C
:1054A0004FF4D262204601F099F82D4B04F13801F7
:1054B0001D704FF480723346009504F11000A773FD
:1054C00004F54E7B84F80590C4F8088000F0C6FA15
:1054D000334604F59C714FF40072009604F12400E9
:1054E00000F0BCFA04F5507A5846FBF76FFD5046C1
:1054F000FBF76CFD334604F560714FF48072009544
:1055000004F5567084F85673C4F820B004F5D067DB
:10551000C4F830A084F84D93E5616563C4F8508306
:10552000A4F8545300F09AFA33464FF4007204F58D
:105530009061009604F55B7000F090FA04F5D16676
:105540003846FBF743FD3046FBF740FDC4E9D95729
:10555000C4E9DE6503B0BDE8F08F00BF0C22002077
:10556000082200200C4B1A6A196B12B10022C3E901
:10557000072211B10022C3E90C22D3F86823D3F823
:10558000781312B10022C3E9D92211B10022C3E974
:10559000DE220120704700BF0C220020002238B517
:1055A0001A4D1B4C2B782260D807227115D599070C
:1055B0001AD50121174800F06FFC002216482B78FD
:1055C000C4F848230271DA071BD59B0710D5BDE844
:1055D00038400121114800F05FBC04F1100000F0D8
:1055E0003FFC2B789907E4D40A4800F039FCE0E747
:1055F0000A4800F035FCBDE838400121074800F0BA
:105600004BBC103000F02CFC2B78DEE70822002089
:105610000C22002030220020542500207825002074
:105620002DE9F0414B7982B0022B0FD18B79022BFF
:105630000CD12E4F8046BE7886B197F84A3353B1CD
:105640004FF0E023D3F8F03DDB0729D400252846AE
:1056500002B0BDE8F081012607F552778B78092565
:105660003B700C780C44617824290BD1082A02D8AD
:105670000FE0AA420DD323781C4461782B442429DF
:105680009DB2F6D005290DD0042902D163790A2BE9
:1056900016D03046FFF7E4FD284602B0BDE8F081A1
:1056A00000BED3E721464046FFF736FC0028C7D0AE
:1056B000A3787B7023781C442B4461789DB2E3E788
:1056C0000223404694F80080FA180337019204EB55
:1056D00008011A460097FFF7D1FB0028B0D005F16A
:1056E0000E0318FA83F39DB2D3E700BF0C2200200B
:1056F000137803F06003202B0DD170B5304B0C46AE
:1057000093F800C091888C4507D093F848C38C4526
:1057100049D0002070BD002070479C46002553787A
:10572000203B032BF5D8DFE803F02B210802012CE6
:1057300034D0032C3BD0012070BD012C2ED0032C83
:10574000F9D154880CF1240004F0010686F001011F
:105750008CF8044000F0A0FB1A4B002BEBD0314634
:105760002846C4F34002FAF789FDE4E7012CE2D1B0
:10577000114607230CF10802FFF766FC204670BDB6
:10578000012CF5D0032CD6D10F4B002BD3D02846BB
:105790000CF10801FAF774FD012070BD1146FFF706
:1057A00039FC012070BD012503F5527CB7E7074B9A
:1057B000002BC0D028465188AFF30080012070BD77
:1057C0000C2200207D020010810200100000000069
:1057D0004A4A2DE9F84FD5780C468D420646984640
:1057E00016D093788B4275D092F84B338B4275D09C
:1057F00092F84A338B4278D04FF0E023D3F8F04D43
:1058000014F0010401D000BE00242046BDE8F88F4A
:10581000002115468A468946394F05F1100B584636
:1058200039441FFA88F200F06DFA364BEBB16B7910
:10583000FF2B1AD0B8F1000F17D007EB080207EBC7
:10584000CA1702EBCA1A02E0BA450ED06B7917F8F4
:10585000012B9A42F8D1584600F042F90028F3D1C2
:1058600048466979AFF30080EEE7274B23B15846ED
:1058700000F036F900283DD04846FFF7F1FCAB7840
:10588000A34203D001242046BDE8F88F1F4B13B17B
:105890004846AFF300804846FFF788FD0028F1D165
:1058A00005F1240000F00CF90028EBD1B8F1000F4D
:1058B000E8D018F03F08E5D13046A978FFF74EFB55
:1058C00004460028DED0434642463046A978FFF71A
:1058D00069FB9AE715464FF00009D0E74FF0010A3F
:1058E0008021D14602F5527596E74FF0010902F585
:1058F0005275C4E74846AFF30080BDE70C22002094
:10590000082100200000000000000000000000004E
:10591000F8B5037813F001041AD1037805465A0745
:10592000C3F3800701D52046F8BD0E464FF0FF3186
:10593000304606F0F5FE2B7813F001040BD12B78DE
:105940005B0709D42B78012443F004032B7003E098
:1059500000242046F8BD3C46304606F0F5FE2046C1
:10596000F8BD00BF70B50D4604464FF0FF31284624
:1059700006F0D6FE2378C3F380065B0708D52378AC
:1059800013F0010211BF0026237862F38203237013
:10599000284606F0D9FE304670BD00BFC378828825
:1059A00003F003000228C2F30A0205D003281BD02B
:1059B000012807D00020704702291ED0402A09D8AC
:1059C00001207047022940F2FF3308BF4FF4806383
:1059D0009342F6D24FF0E023D3F8F00D10F001001F
:1059E000EFD000BE0020704702290CBF4FF4806347
:1059F00040239342EED30120E3E7B2F5007FDFD0EE
:105A0000E8E700BF0A44914226D291F801C0BCF1F8
:105A1000050F05D091F800C061448A42F5D870475F
:105A200000B591F802C00CF07F0E00EB4E0E4FEA6D
:105A3000DC1C0EF80C3091F800C061448A4209D990
:105A400091F801C0BCF1050FEBD091F800C06144A2
:105A50008A42F5D85DF804FB704700BF2DE9F0419C
:105A6000B2F5004F9DF8188027D80446C068174645
:105A70000E461D4618B14FF0FF3106F051FE206969
:105A800018B14FF0FF3106F04BFE0022C5F30E03B4
:105A9000E06843EAC83362812660A780E380228100
:105AA00008B106F051FE206920B106F04DFE01203C
:105AB000BDE8F0810120BDE8F0810020BDE8F08163
:105AC000038942899BB292B28088934236BFC2EB6F
:105AD00040029B1A9B189BB2984228BF18467047F9
